:100000008AEF04F00000000000EF00F000000000A4
:0A0010000000000000000000F3D71C
:0C001C00100E0D6E0D2EFED7000012001D
:0C002800000000000000000000001200BA
:0A003400F3DF8480F1DF84901200F6
:10003E00FF0E956EF2DFF1DF8484849084828480DB
:10004E00E6DF83CF74F084908492E7DFE6DF956A73
:06005E0074C000F0120066
:100064007F0E7414006E00C074F084948492BF0EEA
:10007400001600C074F0008C00C074F000C083FF50
:04008400D7DF1200B0
:100088007F0E7414016E01C074F001AC03D0818E30
:0A009800819C02D0819E818C120031
:0E00A20084948492B80E7410836EC3DF120033
:0E00B00084908484849274C083FFBCDF1200AD
:1000BE000B6A0A6A096A00500402F4CF09F0F3CF02
:1000CE0008F001500502F4CF0BF0F3CF0AF0005008
:1000DE000502F3500926F4500A22E86A0B22015059
:1000EE000402F3500926F4500A22E86A0B2208C0D3
:1000FE0000F009C001F00AC002F00BC003F01200BC
:10010E00000E6E5C0AE36E507F0807E3000E6F5C14
:10011E0004E36F503F0801E301D04AD06EC074F083
:10012E00ACDF6FC074F07432749E7432749E74328D
:10013E00749EB0DF6EC074F08EDF7ADF00C073F095
:10014E0077DF00C073F06FC074F07432749E743237
:10015E00749E7432749E9EDF6EC074F07CDF070E48
:10016E006F14006E00C071F000C001F0010E006E41
:10017E00015004E000360090FF0FFBD700C071F075
:10018E00001C726E09D0725073160FD0715073121C
:10019E000CD07150731A09D07050000AF4E07050F0
:1001AE00010AF4E07050020AF4E073C074F079DFD3
:0201BE0012002D
:1001C0006650070801E282D04550645C006E46C06C
:1001D00001F0000E01564CC004F0000E056E6FDFFA
:1001E00000C06CF001C06DF065C074F03BDF66C00C
:1001F00074F057DF686A4C50685C49E265507F08CC
:1002000001E264D065C074F03FDF66C074F049DF7E
:1002100065C074F027DF13DF00C069F010DF00C095
:1002200069F065C074F030DF66C074F03ADF65C015
:1002300074F018DF6C504924F66E6D504A20F76E4A
:10024000000E6DBEFF0E4B20F86E0900F5CF00F0DA
:1002500000C06AF06C4A6D2A001C6B6E09D06BC03E
:1002600069F00FD06AC069F00CD06A50691A09D0E1
:100270006750000AF4E06750010AF4E06750020A90
:10028000F4E069C074F014DF652A682AB4D765C049
:1002900074F0FADE66C074F004DF65C074F0E2DE6C
:1002A000FF0E6A6E6B6A0CD06AC069F06AC074F0A7
:1002B000FFDE0CD06BC069F06BC074F0F9DE06D0C5
:0E02C0006750000AF1E06750010AF4E01200F6
:1002CE00000E665C04E366507F0801E301D027D080
:1002DE00000E645CD8A0646A64503F0802E23F0ED0
:1002EE00646E000E655CD8A0656A65503F0802E238
:1002FE003F0E656E6450655C06E264C068F065C0D2
:10030E0064F068C065F06450655C09E366C06EF029
:10031E0064C06FF067C070F0F3DE642AF4D7120089
:10032E00000E665C04E366503F0801E301D027D05F
:10033E00000E645CD8A0646A64507F0802E27F0EEF
:10034E00646E000E655CD8A0656A65507F0802E297
:10035E007F0E656E6450655C06E264C068F065C031
:10036E0064F068C065F06450655C09E364C06EF0CB
:10037E0066C06FF067C070F0C3DE642AF4D7120057
:10038E0051C049F052C04AF053C04BF056C045F030
:10039E0057C046F054C04CF055C04DF0010E446E9F
:0203AE0012003B
:1003B000566A4450000A0EE1050E4C6E070E4D6E53
:1003C000140E496E140E4A6E000E4B6E200E456ED2
:1003D000000E466E56505124E96E000E5220EA6E11
:1003E000EE5216E056505124E96E000E5220EA6E8D
:1003F000EECF64F053C065F054C066F055C067F0AE
:10040000DFDE4C50010F006E00505326562AE2D713
:020410001200D8
:10041200819E818C536A535007080EE353C074F0D7
:100422003FDE526A52503F0805E351C074F03FDE8E
:10043200522AF8D7532AEFD7819C818E536A5350A0
:1004420007080EE353C074F02BDE526A52503F0885
:1004520005E351C074F02BDE522AF8D7532AEFD7A6
:02046200120086
:100464000900F5CFE6FF0006FBE10106F9E1120001
:10047400446A476A486A939A969096949692939E91
:10048400939C819A956A84948492819E818C818ABA
:100494003F0E836ECDDDC00E836ECADD818E819CDE
:0E04A4003F0E836EC5DDC00E836EC2DD1200FA
:1004B20052C056F05650545C0BE351C064F053C026
:1004C20065F056C066F055C067F030DF562AF2D7A5
:0204D200120016
:1004D400800E5218006E800E005C02E1000E515C2A
:1004E40002E2516A526A800E006E800E5218005C5D
:1004F40002E151507F0804E27F0E516E000E526EED
:10050400800E5618006E800E005C02E1000E555CF1
:1005140002E2556A566A800E006E800E5618005C20
:1005240002E155507F0804E27F0E556E000E566EB0
:10053400800E5418006E800E005C02E1000E535CC5
:1005440002E2536A546A800E006E800E5418005CF6
:1005540002E153503F0804E23F0E536E000E546E06
:10056400800E5818006E800E005C02E1000E575C8D
:1005740002E2576A586A800E006E800E5818005CBA
:1005840002E157503F0804E23F0E576E000E586ECA
:100594005150555C016E52505658026E01C05AF0CB
:1005A40002C05BF05350575C5C6E545058585D6EFB
:1005B400800E0218006E800E005C02E1000E015CE9
:1005C4000BE25A5000085A6E5B50000E5B56FF0E49
:1005D4005E6EFF0E5F6E04D0010E5E6E000E5F6EE7
:1005E400800E5D18006E800E005C02E1000E5C5C03
:1005F4000BE25C5000085C6E5D50000E5D56FF0E11
:10060400606EFF0E616E04D0010E606E000E616EAE
:100614005A365A905B365C365C905D3651C06EF04B
:1006240053C06FF059C070F070DD800E5D18006E1D
:10063400800E5B18005C02E15A505C5C3DE25AC0DB
:1006440000F05BC001F001320032019E01BC018E5A
:1006540000505C5C626E01505D58636E52505618D7
:1006640002E15550511827E0800E6318006E800E89
:10067400005C02E1000E625C08E3605053266150A6
:1006840054225A50625E5B50635A5E505124006E8D
:100694005F505220016E00C051F001C052F05C5016
:1006A40062265D50632200C06EF053C06FF059C0E3
:1006B40070F02BDDD3D73CD05CC000F05DC001F0FE
:1006C40001320032019E01BC018E00505A5C626E00
:1006D40001505B58636E5450581802E15750531838
:1006E40027E0800E6318006E800E005C02E1000EAD
:1006F400625C08E35E5051265F5052225C50625E99
:100704005D50635A60505324006E61505420016E52
:1007140000C053F001C054F05A5062265B5063226B
:1007240051C06EF000C06FF059C070F0EEDCD3D74A
:020734001200B1
:10073600330E0B6EBB0E0C6EDF0E0D6E0D2EFED73E
:0E0746000C2EFCD70B2EFAD70000000012007C
:1007540051C064F053C065F052C066F055C067F0F4
:10076400E4DD51C064F053C065F054C066F055C078
:1007740067F0DBDD52C064F054C065F051C066F030
:1007840055C067F0A2DD52C064F054C065F053C098
:0A07940066F055C067F099DD120011
:10079E005C6A5D6A5150535C5E6E525054585F6E87
:1007AE0055C05AF056C05BF055C000F056C001F06F
:1007BE0000360090013600C058F001C059F00050CC
:1007CE000308586E01C059F0000E5956010E5A24F6
:1007DE00016E000E5B20026E800E5D18006E800EA4
:1007EE000218005C02E101505C5CD8B08BD05C500A
:1007FE0051246E6E5A5053246F6E57C070F080DCC9
:10080E005C5051246E6E5A50535C6F6E57C070F030
:10081E0077DC5C50515C6E6E5A5053246F6E57C02D
:10082E0070F06EDC5C50515C6E6E5A50535C6F6EA5
:10083E0057C070F065DC5A5053246E6E5E506E5E7B
:10084E005C5053246F6E57C070F05ADC5A505324CC
:10085E006E6E5E506E5E5C50535C6F6E57C070F085
:10086E004FDC5A50535C6E6E5E506E5E5C5053247D
:10087E006F6E57C070F044DC5A50535C6E6E5E5013
:10088E006E5E5C50535C6F6E57C070F039DC800E3C
:10089E005918006E800E005C02E1000E585C13E2E7
:1008AE005CC000F05DC001F00036009001360036ED
:1008BE0000900136060E0026000E0122005058262A
:1008CE00015059221CD05A505C5C036E5B505D582F
:1008DE00046E03C000F004C001F000360090013633
:1008EE000036009001360A0E0026000E012200503E
:1008FE00582601505922010E5A5E000E5B5A5C4A70
:06090E005D2A64D712000F
:1009140063EC0CF0060EC16EABDD516A78DDFF0EA0
:10092400516E75DD2A0E516E0B0E526E000E536E13
:10093400080E546E070E556E200E566E000E576E3E
:1009440024DD300E4F6E000E506E4FC051F050C07B
:1009540052F0010E536E546A020E556E27DDE9DE25
:10096400D40E516E170E526E000E536E030E546E5B
:10097400050E556E200E566E000E576E06DD3F0EA8
:100984004F6E000E506E4FC051F050C052F03C0EEE
:10099400536E020E546E020E556E08DDCADE2A0E28
:1009A400516E120E526E000E536E050E546E070EEB
:1009B400556E200E566E000E576EE7DC2B0E4F6EF2
:1009C400000E506E4FC051F050C052F0050E536EE1
:1009D400040E546E020E556EE9DCABDEF40E516E5D
:1009E400150E526E000E536E050E546E070E556EA4
:1009F400200E566E000E576EC8DC150E4F6E000E9C
:100A0400506E4FC051F050C052F0320E536E060E6D
:100A1400546E020E556ECADC8CDE81D7516AF7DC47
:100A24003E0E516E280E526E7C0E536E380E546E6E
:100A3400010E556E3CDD050E516E050E526E540EC0
:100A4400536E230E546E010E556E82DE516A526A45
:100A5400536A546A7F0E556E000E566E3F0E576EE3
:100A6400000E586E010E596E33DD63DE050E4E6EB8
:100A74003C0E4E5C23E2070E0B6E580E0C6E590EA4
:100A84000D6E0D2EFED70C2EFCD70B2EFAD70000C0
:100A94000000020E646E360E656E4EC066F0010EE6
:100AA400676E13DC020E646E780E656E4EC066F0DF
:100AB400010E676E3ADC050E4E262AD73ADE516ADD
:100AC400A6DC240E516E000E526E010E536E070EFC
:100AD400546E020E556E6ADC010E4E6E4E500A08BC
:100AE40013E33F0E516E000E526E200E536E000E35
:100AF400546E030E4E02F3CF55F0F4CF56F0010EB0
:100B0400576E4BDE4E2AEAD714DE0C0E516E140ECD
:100B1400526E460E536E390E546E020E556EC7DC7D
:060B240008DEF6D6FFD743
:1018C60010EE15F02F0E006E010E016E970EF66EDD
:0E18D600180EF76E000EF86E32EC02F01200E3
:100B2A00000000000000000000065F5F06000000F1
:100B3A000007070007070000147F7F147F7F140057
:100B4A00242E6B6B3A120000466630180C6662005F
:100B5A00307A4F5D377A480004070300000000002E
:100B6A00001C3E63410000000041633E1C0000007F
:100B7A00082A3E1C1C3E2A0808083E3E08080000B7
:100B8A000080E0600000000008080808080800006B
:100B9A0000006060000000006030180C06030100CD
:100BAA003E7F71594D7F3E0040427F7F40400000AA
:100BBA00627359496F660000226349497F36000013
:100BCA00181C16537F7F5000276745457D39000062
:100BDA003C7E4B4979300000030371790F0700000E
:100BEA00367F49497F360000064F49693F1E00009B
:100BFA0000006666000000000080E6660000000053
:100C0A00081C366341000000242424242424000004
:100C1A00004163361C080000020351590F06000008
:100C2A003E7F415D5D1F1E007C7E13137E7C0000AB
:100C3A00417F7F49497F36001C3E63414163220060
:100C4A00417F7F41633E1C00417F7F495D416300D4
:100C5A00417F7F491D0103001C3E634151737200AD
:100C6A007F7F08087F7F000000417F7F41000000EE
:100C7A00307040417F3F0100417F7F081C7763004D
:100C8A00417F7F41406070007F7F0E1C0E7F7F0096
:100C9A007F7F060C187F7F001C3E6341633E1C0069
:100CAA00417F7F49090F06001E3F21717F5E0000C8
:100CBA00417F7F09197F6600266F4D597332000004
:100CCA0003417F7F410300007F7F40407F7F000018
:100CDA001F3F60603F1F00007F7F3018307F7F001A
:100CEA0043673C183C674300074F78784F0700007A
:100CFA00476371594D677300007F7F4141000000CF
:100D0A000103060C183060000041417F7F0000009B
:100D1A00080C0603060C0800808080808080808092
:100D2A000000030704000000207454543C7840007B
:100D3A00417F3F4848783000387C44446C280000A2
:100D4A00307848493F7F4000387C54545C18000092
:100D5A00487E7F490302000098BCA4A4F87C0400E2
:100D6A00417F7F08047C780000447D7D40000000BC
:100D7A0060E08080FD7D0000417F7F10386C440078
:100D8A0000417F7F400000007C7C18381C7C780082
:100D9A007C7C04047C780000387C44447C38000065
:100DAA0084FCF8A4243C1800183C24A4F8FC840011
:100DBA00447C784C041C1800485C54547424000089
:100DCA0000043E7F442400003C7C40403C7C4000C0
:100DDA001C3C60603C1C00003C7C7038707C3C0011
:100DEA00446C3810386C44009CBCA0A0FC7C000009
:100DFA004C64745C4C64000008083E774141000072
:100E0A0000000077770000004141773E08080000A3
:100E1A00020301030203010070784C464C7870000B
:100E2A000E9F91B1FB4A00003A7A40407A7A40001C
:100E3A00387C54555D19000002237555557D7B4257
:100E4A00217554547D794000217555547C784000B1
:100E5A00207457577C784000183CA4A4E440000052
:100E6A00023B7D55555D1B02397D54545D190000C6
:100E7A00397D55545C18000001457C7C4101000015
:100E8A000203457D7D43020001457D7C4000000050
:100E9A00797D1612167D790070782B2B78700000F8
:100EAA00447C7C5555450000207454547C7C545431
:100EBA007C7E0B097F7F4900327B49497B320000E7
:100ECA00327A48487A320000327A4A48783000004A
:100EDA003A7B41417B7A40003A7A42407878400036
:100EEA009ABAA0A0FA7A000001193C66663C190178
:100EFA003D7D40407D3D0000183C24E7E724240066
:100F0A00687E7F49436620002B2FFCFC2F2B0000B4
:100F1A00FFFF09092FF6F8A040C088FE7F090302E7
:100F2A00207454557D79400000447D7D41000000C5
:100F3A003078484A7A320000387840427A7A40005B
:100F4A007A7A0A0A7A7000007D7D19317D7D000067
:100F5A0000262F292F2F280000262F292F260000B0
:100F6A0030784D456020000038380808080800002D
:100F7A0008080808383800004F6F3018CCEEBB91CB
:100F8A004F6F30186C76FBF90000007B7B00000085
:100F9A00081C3622081C362222361C0822361C0857
:100FAA00AA005500AA005500AA55AA55AA55AA553D
:100FBA00DDFFAA77DDAAFF77000000FFFF0000002F
:100FCA00101010FFFF000000141414FFFF000000AF
:100FDA001010FFFF00FFFF001010F0F010F0F000FB
:100FEA00141414FCFC0000001414F7F700FFFF00AF
:100FFA000000FFFF00FFFF001414F4F404FCFC00DF
:10100A0014141717101F1F0010101F1F101F1F0086
:10101A001414141F1F000000101010F0F00000003C
:10102A000000001F1F1010101010101F1F101010AA
:10103A00101010F0F0101010000000FFFF10101038
:10104A001010101010101010101010FFFF101010B8
:10105A00000000FFFF1414140000FFFF00FFFF1040
:10106A0000001F1F101717140000FCFC04F4F414EE
:10107A0014141717101717141414F4F404F4F414AE
:10108A000000FFFF00F7F7141414141414141414B6
:10109A001414F7F700F7F714141414171714141488
:1010AA0010101F1F101F1F10141414F4F41414141A
:1010BA001010F0F010F0F01000001F1F101F1F108A
:1010CA000000001F1F141414000000FCFC14141468
:1010DA000000F0F010F0F0101010FFFF10FFFF10EA
:1010EA00141414FFFF1414141010101F1F00000012
:1010FA00000000F0F0101010FFFFFFFFFFFFFFFFDE
:10110A00F0F0F0F0F0F0F0F0FFFFFFFF0000000059
:10111A0000000000FFFFFFFF0F0F0F0F0F0F0F0F51
:10112A00387C446C386C4400FCFE2A2A3E140000C9
:10113A007E7E020206060000027E7E027E7E02009B
:10114A0063775D4963630000387C447C3C04040097
:10115A0080FE7E20203E1E000406027E7C060200DF
:10116A0099BDE7E7BD9900001C3E6B496B3E1C0028
:10117A004C7E7301737E4C0030784A4F7D390000F3
:10118A00183C243C3C243C1898FC643C3E273D18FF
:10119A001C3E6B49490000007E7F01017F7E0000F2
:1011AA002A2A2A2A2A2A000044445F5F444400006B
:1011BA0040515B4E4440000040444E5B51400000A9
:1011CA00000000FEFF01070660E080FF7F000000CC
:1011DA0008086B6B08080000243612362436120001
:1011EA0000060F090F060000000000181800000092
:1011FA000000001010000000103070C0FFFF010155
:10120A00001F1F011F1E000000191D1712000000F9
:10121A0000003C3C3C3C000000000E1F11111F0E58
:10122A00000000000000004F000000070007001443
:10123A007F147F14242A7F2A1223130864623649F2
:10124A005522200005030000001C22410000412213
:10125A001C0014083E081408083E08085030000014
:10126A00000808080808006060000020100804024E
:10127A003E5149453E00427F400042615149462164
:10128A0041454B311814127F1027454545393C4AD0
:10129A004949300171090503364949493606494920
:1012AA00291E003636000000563600000814224176
:1012BA0000141414141400412214080201510906DE
:1012CA003E415D551E7E1111117E7F494949363EC8
:1012DA00414141227F4141221C7F494949417F09BD
:1012EA000909013E4149497A7F0808087F00417F80
:1012FA0041002040413F017F081422417F40404085
:10130A00407F020C027F7F0408107F3E4141413E2C
:10131A007F090909063E4151215E7F09192946269E
:10132A004949493201017F01013F4040403F1F20A6
:10133A0040201F3F4038403F631408146307087079
:10134A0008076151494543007F41410002040810E2
:10135A00200041417F000402010204404040404015
:10136A00000003050020545454787F44444438381C
:10137A0044444444384444447F385454541804047C
:10138A007E0505085454543C7F0804047800447DC3
:10139A0040002040443D007F1028440000417F4027
:1013AA00007C047C04787C0804047838444444387B
:1013BA007C14141408081414147C7C0804040048CF
:1013CA005454542404043F44443C4040207C1C2090
:1013DA0040201C3C4030403C44281028440C5050CB
:1013EA00503C4464544C44083641410000007700A4
:1013FA0000004141360808082A1C08081C2A080867
:0A140A00FFFFFFFFFF0609090600BF
:10141400000000000000005F000000070007001447
:101424007F147F14242A7F2A122313086462364906
:101434005522500005030000001C224100004122F7
:101444001C00082A1C2A0808083E0808005030001E
:1014540000080808080800303000002010080402C2
:101464003E5149453E00427F400042615149462178
:1014740041454B311814127F1027454545393C4AE4
:101484004949300171090503364949493606494934
:10149400291E0036360000005636000000081422CB
:1014A40041141414141441221408000201510906B1
:1014B400324979413E7E1111117E7F494949363EB8
:1014C400414141227F4141221C7F494949417F09D1
:1014D4000901013E414151327F0808087F00417FE4
:1014E40041002040413F017F081422417F40404099
:1014F400407F0204027F7F0408107F3E4141413E49
:101504007F090909063E4151215E7F091929464692
:101514004949493101017F01013F4040403F1F20BB
:1015240040201F7F2018207F63140814630304786D
:101534000403615149454300007F414102040810FE
:101544002041417F00000402010204404040404029
:10155400000102040020545454787F48444438382D
:1015640044444420384444487F3854545418087E32
:10157400090102081454543C7F0804047800447D93
:1015840040002040443D00007F10284400417F403B
:10159400007C041804787C080404783844444438F3
:1015A4007C14141408081414187C7C0804040848D7
:1015B40054545420043F4440203C4040207C1C2090
:1015C40040201C3C4030403C44281028440C5050DF
:1015D400503C4464544C44000836410000007F00F1
:1015E40000004136080008082A1C08081C2A0808BC
:1015F400000000000000005F000000070007001466
:101604007F147F14242A7F2A122313086462364924
:101614005522500005030000001C22410000412215
:101624001C00082A1C2A0808083E0808005030003C
:1016340000080808080800303000002010080402E0
:101644003E5149453E00427F400042615149462196
:1016540041454B311814127F1027454545393C4A02
:101664004949300171090503364949493606494952
:10167400291E0036360000005636000000081422E9
:1016840041141414141441221408000201510906CF
:10169400324979413E7E1111117E7F494949363ED6
:1016A400414141227F4141221C7F494949417F09EF
:1016B4000901013E414151327F0808087F00417F02
:1016C40041002040413F017F081422417F404040B7
:1016D400407F0204027F7F0408107F3E4141413E67
:1016E4007F090909063E4151215E7F0919294646B1
:1016F4004949493101017F01013F4040403F1F20DA
:1017040040201F7F2018207F63140814630304788B
:101714000403615149454300007F4141020408101C
:101724002041417F00000402010204404040404047
:10173400000102040020545454787F48444438384B
:1017440044444420384444487F3854545418087E50
:10175400090102081454543C7F0804047800447DB1
:1017640040002040443D00007F10284400417F4059
:10177400007C041804787C08040478384444443811
:101784007C14141408081414187C7C0804040848F5
:1017940054545420043F4440203C4040207C1C20AE
:1017A40040201C3C4030403C44281028440C5050FD
:1017B400503C4464544C44000836410000007F000F
:1017C40000004136080008082A1C08081C2A0808DA
:1017D400000000005C000C000C7C287C7C447C2411
:1017E4001048285408000C003844004438002010E5
:1017F400081038108040001010100040002010081D
:10180400384438007C006454484454281C107C4CF0
:10181400542438542004740C285428085438005094
:101824000080500010284428282844281004540814
:10183400384C5C7814787C54283844447C44387C94
:1018440054447C14043844347C107C007C002040D4
:101854003C7C106C7C40407C087C7C047C7C447C1C
:101864007C14083844787C1468485424047C047C30
:10187400407C3C403C7C207C6C106C1C601C6454A0
:101884004C7C4400081020447C00080408808080BC
:0318940004080045
:0F18970041495220464C4F57204D455445520071
:0718A6006D696B726F4500D4
:0518AD004F4D4E490003
:0F18B2004149522E464C4F572E4D45544552003A
:0518C1004F4D4E4900EF
:020000040030CA
:0D000100220E0EFF0181FF0FC00FE00F4027
:00000001FF
