:10000000CEEF04F00000000000EF00F00000000060
:0A0010000000000000000000F3D71C
:0C001C00100E0D6E0D2EFED7000012001D
:0C002800000000000000000000001200BA
:0A003400F3DF8480F1DF84901200F6
:10003E00FF0E956EF2DFF1DF8484849084828480DB
:10004E00E6DF83CF7EF084908492E7DFE6DF956A69
:06005E007EC000F012005C
:0E0064008490848484927EC083FFE2DF1200C9
:100072007F0E7E14006E00C07EF084948492BF0EC8
:10008200001600C07EF0008C00C07EF000C083FF2E
:04009200D0DF1200A9
:100096007F0E7E14016E01C07EF001AC03D0818E0E
:0A00A600819C02D0819E818C120023
:0E00B00084948492B80E7E10836EBCDF120022
:1000BE000B6A0A6A096A00500402F4CF09F0F3CF02
:1000CE0008F001500502F4CF0BF0F3CF0AF0005008
:1000DE000502F3500926F4500A22E86A0B22015059
:1000EE000402F3500926F4500A22E86A0B2208C0D3
:1000FE0000F009C001F00AC002F00BC003F01200BC
:10010E00000E785C0AE378507F0807E3000E795CF6
:10011E0004E379503F0801E301D04AD078C07EF065
:10012E00B3DF79C07EF07E327E9E7E327E9E7E3240
:10013E007E9EB7DF78C07EF095DF7ADF00C07DF05F
:10014E0077DF00C07DF079C07EF07E327E9E7E32FB
:10015E007E9E7E327E9EA5DF78C07EF083DF070E08
:10016E007914006E00C07BF000C001F0010E006E2D
:10017E00015004E000360090FF0FFBD700C07BF06B
:10018E00001C7C6E09D07C507D160FD07B507D12EA
:10019E000CD07B507D1A09D07A50000AF4E07A50C8
:1001AE00010AF4E07A50020AF4E07DC07EF053DFDB
:0201BE0012002D
:1001C000000E705C04E370503F0801E301D027D0BB
:1001D000000E6E5CD8A06E6A6E507F0802E27F0E41
:1001E0006E6E000E6F5CD8A06F6A6F507F0802E2DF
:1001F0007F0E6F6E6E506F5C06E26EC072F06FC065
:100200006EF072C06FF06E506F5C09E36EC078F0F4
:1002100070C079F071C07AF07ADF6E2AF4D71200DC
:10022000000E705C04E370507F0801E301D027D01A
:10023000000E6E5CD8A06E6A6E503F0802E23F0E60
:100240006E6E000E6F5CD8A06F6A6F503F0802E2BE
:100250003F0E6F6E6E506F5C06E26EC072F06FC044
:100260006EF072C06FF06E506F5C09E370C078F092
:100270006EC079F071C07AF04ADF6E2AF4D71200AE
:100280007050070801E282D04E506E5C006E4FC085
:1002900001F0000E015650C004F0000E056E0FDF95
:1002A00000C076F001C077F06FC07EF0E2DE70C073
:1002B0007EF0FEDE726A5050725C49E26F507F0839
:1002C00001E264D06FC07EF0E6DE70C07EF0F0DE4A
:1002D0006FC07EF0CEDEB3DE00C073F0B0DE00C0D3
:1002E00073F06FC07EF0D7DE70C07EF0E1DE6FC0CD
:1002F0007EF0BFDE76505424F66E77505520F76EB0
:10030000000E77BEFF0E5620F86E0900F5CF00F004
:1003100000C074F0764A772A001C756E09D075C04B
:1003200073F00FD074C073F00CD07450731A09D0EE
:100330007150000AF4E07150010AF4E07150020AB1
:10034000F4E073C07EF08EDE6F2A722AB4D76FC0DD
:100350007EF0A1DE70C07EF0ABDE6FC07EF089DE85
:10036000FF0E746E756A0CD074C073F074C07EF0AA
:1003700079DE0CD075C073F075C07EF073DE06D0E8
:0E0380007150000AF1E07150010AF4E0120021
:10038E005F6A606A616A5F5007083DE37E6A7CDEE1
:10039E005FC07EF086DE7E6A65DE5E6A5E503F0876
:1003AE0011E360505B24F66E61505C20F76E000E18
:1003BE005D20F86E0900F5CF7EF04DDE604A612AB1
:1003CE005E2AECD7400E7E6E5FDE5FC07EF069DE89
:1003DE00400E7E6E47DE400E5E6E5E507F0811E36D
:1003EE0060505B24F66E61505C20F76E000E5D204F
:1003FE00F86E0900F5CF7EF02EDE604A612A5E2A85
:08040E00ECD75F2AC0D71200F1
:10041600330E0B6EBB0E0C6EDF0E0D6E0D2EFED761
:0E0426000C2EFCD70B2EFAD70000000012009F
:100434000900F5CFE6FF0006FBE10106F9E1120031
:10044400516A526A536A939A969096949692939E9E
:10045400939C819A956A84948492819E818C818AEA
:100464003F0E836EE5DDC00E836EE2DD818E819CDE
:0E0474003F0E836EDDDDC00E836EDADD1200FA
:10048200819E818C5D6A5D5007080EE35DC07EF03F
:100492000EDE5C6A5C503F0805E35BC07EF0E1DD86
:1004A2005C2AF8D75D2AEFD7819C818E5D6A5D5008
:1004B20007080EE35DC07EF0FADD5C6A5C503F081F
:1004C20005E35BC07EF0CDDD5C2AF8D75D2AEFD76D
:0204D200120016
:1004D4005CC060F060505E5C0BE35BC06EF05DC0BE
:1004E4006FF060C070F05FC071F068DE602AF2D710
:0204F4001200F4
:1004F600800E5C18006E800E005C02E1000E5B5CF4
:1005060002E25B6A5C6A800E006E800E5C18005C1C
:1005160002E15B507F0804E27F0E5B6E000E5C6EAC
:10052600800E6018006E800E005C02E1000E5F5CBB
:1005360002E25F6A606A800E006E800E6018005CE0
:1005460002E15F507F0804E27F0E5F6E000E606E70
:10055600800E5E18006E800E005C02E1000E5D5C8F
:1005660002E25D6A5E6A800E006E800E5E18005CB6
:1005760002E15D503F0804E23F0E5D6E000E5E6EC6
:10058600800E6218006E800E005C02E1000E615C57
:1005960002E2616A626A800E006E800E6218005C7A
:1005A60002E161503F0804E23F0E616E000E626E8A
:1005B6005B505F5C016E5C506058026E01C064F077
:1005C60002C065F05D50615C666E5E506258676E93
:1005D600800E0218006E800E005C02E1000E015CC7
:1005E6000BE264500008646E6550000E6556FF0EFF
:1005F600686EFF0E696E04D0010E686E000E696E9D
:10060600800E6718006E800E005C02E1000E665CCC
:100616000BE266500008666E6750000E6756FF0EC6
:100626006A6EFF0E6B6E04D0010E6A6E000E6B6E64
:100636006436649065366636669067365BC078F0D9
:100646005DC079F063C07AF05FDD800E6718006EDA
:10065600800E6518005C02E16450665C3DE264C091
:1006660000F065C001F001320032019E01BC018E2E
:100676000050665C6C6E015067586D6E5C50601879
:1006860002E15F505B1827E0800E6D18006E800E49
:10069600005C02E1000E6C5C08E36A505D266B505C
:1006A6005E2264506C5E65506D5A68505B24006E25
:1006B60069505C20016E00C05BF001C05CF06650C2
:1006C6006C2667506D2200C078F05DC079F063C07B
:1006D6007AF01ADDD3D73CD066C000F067C001F0CF
:1006E60001320032019E01BC018E0050645C6C6ECA
:1006F600015065586D6E5E50621802E161505D18DA
:1007060027E0800E6D18006E800E005C02E1000E80
:100716006C5C08E368505B2669505C2266506C5E30
:1007260067506D5A6A505D24006E6B505E20016EF4
:1007360000C05DF001C05EF064506C2665506D220D
:100746005BC078F000C079F063C07AF0DDDCD3D707
:0207560012008F
:10075800666A676A5B505D5C686E5C505E58696E7D
:100768005FC064F060C065F05FC000F060C001F079
:1007780000360090013600C062F001C063F00050FE
:100788000308626E01C063F0000E6356010E642414
:10079800016E000E6520026E800E6718006E800ED6
:1007A8000218005C02E10150665CD8B08BD066503C
:1007B8005B24786E64505D24796E61C07AF0A3DCA6
:1007C80066505B24786E64505D5C796E61C07AF027
:1007D8009ADC66505B5C786E64505D24796E61C00B
:1007E8007AF091DC66505B5C786E64505D5C796E83
:1007F80061C07AF088DC64505D24786E6850785E59
:1008080066505D24796E61C07AF07DDC64505D24A9
:10081800786E6850785E66505D5C796E61C07AF07B
:1008280072DC64505D5C786E6850785E66505D245A
:10083800796E61C07AF067DC64505D5C786E6850F0
:10084800785E66505D5C796E61C07AF05CDC800E23
:100858006318006E800E005C02E1000E625C13E219
:1008680066C000F067C001F000360090013600361F
:1008780000900136060E0026000E01220050622666
:10088800015063221CD06450665C036E6550675843
:10089800046E03C000F004C001F000360090013679
:1008A8000036009001360A0E0026000E0122005084
:1008B800622601506322010E645E000E655A664A84
:0608C800672A64D712004C
:1008CE005BC054F05CC055F05DC056F060C04EF099
:1008DE0061C04FF05EC050F05FC057F0010E516E18
:0208EE001200F6
:1008F0005BC06EF05DC06FF05CC070F05FC071F007
:100900005FDC5BC06EF05DC06FF05EC070F05FC01A
:1009100071F056DC5CC06EF05EC06FF05BC070F0D2
:100920005FC071F07DDC5CC06EF05EC06FF05DC0DA
:0A09300070F05FC071F074DC12007B
:10093A00606A5150000A0EE1050E506E070E576E9E
:10094A00CE0E546E180E556E000E566E200E4E6E5A
:10095A00000E4F6E60505B24E96E000E5C20EA6E5A
:10096A00EE5216E060505B24E96E000E5C20EA6EDF
:10097A00EECF6EF05DC06FF05EC070F05FC071F0D8
:10098A007ADC5050010F006E00505D26602AE2D7D3
:02099A00120049
:10099C00C5EC0EF0060EC16E4FDD5B6A6CDDE40E2D
:1009AC005B6E120E5C6E000E5D6EEBDC2EDD2DDDD3
:1009BC005B6A61DD3E0E5B6E280E5C6E7C0E5D6EBE
:1009CC00380E5E6E010E5F6E7FDD050E5B6E050EE2
:1009DC005C6E540E5D6E230E5E6E010E5F6E82DFDA
:1009EC005B6A5C6A5D6A5E6A7F0E5F6E000E606EAB
:1009FC003F0E616E000E626E010E636E76DD05DDDC
:100A0C00050E586E3C0E585C25E2070E0B6E580E08
:100A1C000C6E590E0D6E0D2EFED70C2EFCD70B2E18
:100A2C00FAD700000000020E6E6E360E6F6E58C0C4
:100A3C0070F0010E716E10EC01F0020E6E6E780EFD
:100A4C006F6E58C070F0010E716EE0EC00F0050E88
:100A5C005826D8D7DADC5B6A0EDDE40E5B6E0B0E23
:100A6C005C6E000E5D6E080E5E6E070E5F6E200EE5
:100A7C00606E000E616E25DF2C0E5B6E000E5C6EE0
:100A8C00010E5D6E070E5E6E020E5F6E50DF010E84
:100A9C00586E58500A0813E33F0E5B6E000E5C6EE6
:100AAC00200E5D6E000E5E6E030E5802F3CF5FF0EB
:100ABC00F4CF60F0010E616E49DE582AEAD7A5DC4E
:100ACC000C0E5B6E140E5C6E460E5D6E390E5E6E19
:100ADC00020E5F6EF9DC99DCFF0E5B6ECCDCE40E73
:100AEC005B6E0B0E5C6E000E5D6E080E5E6E070E7E
:100AFC005F6E200E606E000E616EE3DE330E596E7B
:100B0C00000E5A6E59C05BF05AC05CF0050E5D6E5B
:100B1C005E6A020E5F6E0BDF78DC8E0E5B6E1C0E57
:100B2C005C6E000E5D6E030E5E6E050E5F6E200E2B
:100B3C00606E000E616EC5DE3C0E596E000E5A6E74
:100B4C0059C05BF05AC05CF03C0E5D6E020E5E6EDE
:100B5C00020E5F6EECDE59DCE40E5B6E160E5C6E04
:100B6C00000E5D6E050E5E6E070E5F6E200E606EE3
:100B7C00000E616EA6DE150E596E000E5A6E59C02F
:100B8C005BF05AC05CF0050E5D6E040E5E6E020EDC
:100B9C005F6ECDDE3ADCAE0E5B6E1A0E5C6E000E36
:100BAC005D6E050E5E6E070E5F6E200E606E000EA3
:100BBC00616E87DE1E0E596E000E5A6E59C05BF0C8
:100BCC005AC05CF0320E5D6E060E5E6E020E5F6EEB
:080BDC00AEDE1BDCE4D6FFD7FE
:101D8A0010EE15F0390E006E010E016E510EF66E50
:0E1D9A001D0EF76E000EF86E1AEC02F012002D
:100BE400000000000000000000065F5F0600000037
:100BF4000007070007070000147F7F147F7F14009D
:100C0400242E6B6B3A120000466630180C666200A4
:100C1400307A4F5D377A4800040703000000000073
:100C2400001C3E63410000000041633E1C000000C4
:100C3400082A3E1C1C3E2A0808083E3E08080000FC
:100C44000080E060000000000808080808080000B0
:100C540000006060000000006030180C0603010012
:100C64003E7F71594D7F3E0040427F7F40400000EF
:100C7400627359496F660000226349497F36000058
:100C8400181C16537F7F5000276745457D390000A7
:100C94003C7E4B4979300000030371790F07000053
:100CA400367F49497F360000064F49693F1E0000E0
:100CB40000006666000000000080E6660000000098
:100CC400081C36634100000024242424242400004A
:100CD400004163361C080000020351590F0600004E
:100CE4003E7F415D5D1F1E007C7E13137E7C0000F1
:100CF400417F7F49497F36001C3E634141632200A6
:100D0400417F7F41633E1C00417F7F495D41630019
:100D1400417F7F491D0103001C3E634151737200F2
:100D24007F7F08087F7F000000417F7F4100000033
:100D3400307040417F3F0100417F7F081C77630092
:100D4400417F7F41406070007F7F0E1C0E7F7F00DB
:100D54007F7F060C187F7F001C3E6341633E1C00AE
:100D6400417F7F49090F06001E3F21717F5E00000D
:100D7400417F7F09197F6600266F4D597332000049
:100D840003417F7F410300007F7F40407F7F00005D
:100D94001F3F60603F1F00007F7F3018307F7F005F
:100DA40043673C183C674300074F78784F070000BF
:100DB400476371594D677300007F7F414100000014
:100DC4000103060C183060000041417F7F000000E1
:100DD400080C0603060C08008080808080808080D8
:100DE4000000030704000000207454543C784000C1
:100DF400417F3F4848783000387C44446C280000E8
:100E0400307848493F7F4000387C54545C180000D7
:100E1400487E7F490302000098BCA4A4F87C040027
:100E2400417F7F08047C780000447D7D4000000001
:100E340060E08080FD7D0000417F7F10386C4400BD
:100E440000417F7F400000007C7C18381C7C7800C7
:100E54007C7C04047C780000387C44447C380000AA
:100E640084FCF8A4243C1800183C24A4F8FC840056
:100E7400447C784C041C1800485C545474240000CE
:100E840000043E7F442400003C7C40403C7C400005
:100E94001C3C60603C1C00003C7C7038707C3C0056
:100EA400446C3810386C44009CBCA0A0FC7C00004E
:100EB4004C64745C4C64000008083E7741410000B7
:100EC40000000077770000004141773E08080000E9
:100ED400020301030203010070784C464C78700051
:100EE4000E9F91B1FB4A00003A7A40407A7A400062
:100EF400387C54555D19000002237555557D7B429D
:100F0400217554547D794000217555547C784000F6
:100F1400207457577C784000183CA4A4E440000097
:100F2400023B7D55555D1B02397D54545D1900000B
:100F3400397D55545C18000001457C7C410100005A
:100F44000203457D7D43020001457D7C4000000095
:100F5400797D1612167D790070782B2B787000003D
:100F6400447C7C5555450000207454547C7C545476
:100F74007C7E0B097F7F4900327B49497B3200002C
:100F8400327A48487A320000327A4A48783000008F
:100F94003A7B41417B7A40003A7A4240787840007B
:100FA4009ABAA0A0FA7A000001193C66663C1901BD
:100FB4003D7D40407D3D0000183C24E7E7242400AB
:100FC400687E7F49436620002B2FFCFC2F2B0000FA
:100FD400FFFF09092FF6F8A040C088FE7F0903022D
:100FE400207454557D79400000447D7D410000000B
:100FF4003078484A7A320000387840427A7A4000A1
:101004007A7A0A0A7A7000007D7D19317D7D0000AC
:1010140000262F292F2F280000262F292F260000F5
:1010240030784D4560200000383808080808000072
:1010340008080808383800004F6F3018CCEEBB9110
:101044004F6F30186C76FBF90000007B7B000000CA
:10105400081C3622081C362222361C0822361C089C
:10106400AA005500AA005500AA55AA55AA55AA5582
:10107400DDFFAA77DDAAFF77000000FFFF00000074
:10108400101010FFFF000000141414FFFF000000F4
:101094001010FFFF00FFFF001010F0F010F0F00040
:1010A400141414FCFC0000001414F7F700FFFF00F4
:1010B4000000FFFF00FFFF001414F4F404FCFC0024
:1010C40014141717101F1F0010101F1F101F1F00CC
:1010D4001414141F1F000000101010F0F000000082
:1010E4000000001F1F1010101010101F1F101010F0
:1010F400101010F0F0101010000000FFFF1010107E
:101104001010101010101010101010FFFF101010FD
:10111400000000FFFF1414140000FFFF00FFFF1085
:1011240000001F1F101717140000FCFC04F4F41433
:1011340014141717101717141414F4F404F4F414F3
:101144000000FFFF00F7F7141414141414141414FB
:101154001414F7F700F7F7141414141717141414CD
:1011640010101F1F101F1F10141414F4F41414145F
:101174001010F0F010F0F01000001F1F101F1F10CF
:101184000000001F1F141414000000FCFC141414AD
:101194000000F0F010F0F0101010FFFF10FFFF102F
:1011A400141414FFFF1414141010101F1F00000057
:1011B400000000F0F0101010FFFFFFFFFFFFFFFF23
:1011C400F0F0F0F0F0F0F0F0FFFFFFFF000000009F
:1011D40000000000FFFFFFFF0F0F0F0F0F0F0F0F97
:1011E400387C446C386C4400FCFE2A2A3E1400000F
:1011F4007E7E020206060000027E7E027E7E0200E1
:1012040063775D4963630000387C447C3C040400DC
:1012140080FE7E20203E1E000406027E7C06020024
:1012240099BDE7E7BD9900001C3E6B496B3E1C006D
:101234004C7E7301737E4C0030784A4F7D39000038
:10124400183C243C3C243C1898FC643C3E273D1844
:101254001C3E6B49490000007E7F01017F7E000037
:101264002A2A2A2A2A2A000044445F5F44440000B0
:1012740040515B4E4440000040444E5B51400000EE
:10128400000000FEFF01070660E080FF7F00000011
:1012940008086B6B08080000243612362436120046
:1012A40000060F090F0600000000001818000000D7
:1012B4000000001010000000103070C0FFFF01019A
:1012C400001F1F011F1E000000191D17120000003F
:1012D40000003C3C3C3C000000000E1F11111F0E9E
:1012E4000000000000F80808080808080C0C0C0CA2
:1012F4000C0A0A0A0A0A0A09090909090909090951
:101304000909090909090909090989898989898949
:1013140089898989898989090909090909090909B9
:1013240009090DFD0DC306FC0000000000000000CB
:1013340000000000000000000000000000000000A9
:101344000000000000000000000000000000000099
:101354000000000000000000000000000000000089
:101364000000000000FF000000000000000000007A
:10137400F0F0F0F0F0E0E0F0F0F0F0F0E0C0C0E009
:10138400F0F0F0F0F0E0C0000000FFFFFFFFFFC34B
:10139400C3C3C3C3C3C303000000000000000000B4
:1013A400000000FFF04FE0FF60606020202020205C
:1013B40020202020202020204040404080000000A9
:1013C4000000000000000000000000000000000019
:1013D4000000000000000000000000000000000009
:1013E4000000000000FF00000000000000000000FA
:1013F400FFFFFFFFFF00000000FFFFFFFFFF0000F3
:101404000000FFFFFFFFFF000000FFFFFFFFFF8161
:101414008181818181818000000000000000000042
:10142400000000FF01F80808080808080808080870
:101434000808080810E01824C446828285D966701A
:10144400A0C060602020A0A0E0E0C040408080C038
:1014540040800000000000000000000000000000C8
:1014640000000000003F606060E0606060606060F9
:10147400636363636360606060636363636360604A
:101484006060636363636360606063636363636337
:101494006363636363636360606060606060404073
:1014A40040E0E0FFF6010E0606020202020202021A
:1014B400020202028243723E231010000703030259
:1014C400040404040404041C101010111109092953
:1014D40070204305F07EAE8038000000000000005C
:1014E40000000000000000000001010101010101F1
:1014F40001017F7F7F7FFFFFF7FB7BBF5F5D7DBDCA
:10150400BD3F5D59B173F3E5CF1B3F77FFCFBFFFFD
:10151400FFFFFFFFFFFFFF7F7F7F7F7F7F7F7FFFD7
:10152400FFFF7F7F7D7878787878F8787878787896
:1015340078F8F8E88F000000000000000080F0F860
:1015440078BCDC5CFC1C1C3C5C5C3C78F8F860C03F
:101554008FA8D88831444832A06000000000000001
:1015640000000080C0F8F8F8F8FCFEFEFEFEFEFE67
:10157400FEFEFEFEFEFFFFFFFFFFF6EFD0F6AEAD70
:10158400A980D1D0E0F7F9FFFFFCDCF07FFFDFFF9B
:10159400FFFFFFFFFFFEFEFFFFFFFFFFFFFFFEFF5A
:1015A400FFFFFFFFFFFFFEFEFEFEFEFEFEFEFEFE51
:1015B400FEFEFEFEFFFFFFFFFFFFFEFFBEFFFFFD7F
:1015C400F0EFDDDFFEA888AAC4D0E4E6F87F7E9CB5
:1015D400DFE2F2F2F2F2F2B12000000000000000BB
:1015E4000000000101010103030307070707070FB8
:1015F4000F0F070F0F0F07070F0E0F0D0F2F2B2BBA
:101604002B2B2B2F6FEFFFFDFDFFFEFFFFFFFFFFD7
:10161400BFBFEFEFEFBFFFBFFFFFFFFFFFFFFFFF06
:10162400FFFFFFFFFFFFFFFFFFFFFFFFFFFFFFFFC6
:10163400FFFFFFFF7F7F7F7FFFFFBFBFBFBFFFFEB7
:10164400FFFDFFFFFFFBFFFFFF7F7D3F1F1F1F1FEE
:101654001F1F3F0F0F0707030303000000000000D4
:101664000000000000000000000000000000000076
:101674000000000000000000000000000000000066
:101684000000000000000000000000000001010054
:101694000101000000000000000000000101010140
:1016A400010101010303030B0B0B0B07030E0606D9
:1016B400060212131303171515110113130306065B
:1016C4000E0F0F070F0F0F0B0200000000000000A9
:1016D4000000000000000000000000000000000006
:1016E400000000000000004F000000070007001485
:1016F4007F147F14242A7F2A122313086462364934
:101704005522200005030000001C22410000412254
:101714001C0014083E081408083E08085030000055
:10172400000808080808006060000020100804028F
:101734003E5149453E00427F4000426151494621A5
:1017440041454B311814127F1027454545393C4A11
:101754004949300171090503364949493606494961
:10176400291E0036360000005636000008142241B7
:10177400001414141414004122140802015109061F
:101784003E415D551E7E1111117E7F494949363E09
:10179400414141227F4141221C7F494949417F09FE
:1017A4000909013E4149497A7F0808087F00417FC1
:1017B40041002040413F017F081422417F404040C6
:1017C400407F020C027F7F0408107F3E4141413E6E
:1017D4007F090909063E4151215E7F0919294626E0
:1017E4004949493201017F01013F4040403F1F20E8
:1017F40040201F3F4038403F6314081463070870BB
:1018040008076151494543007F4141000204081023
:10181400200041417F000402010204404040404056
:10182400000003050020545454787F44444438385D
:1018340044444444384444447F38545454180404BD
:101844007E0505085454543C7F0804047800447D04
:1018540040002040443D007F1028440000417F4068
:10186400007C047C04787C080404783844444438BC
:101874007C14141408081414147C7C080404004810
:101884005454542404043F44443C4040207C1C20D1
:1018940040201C3C4030403C44281028440C50500C
:1018A400503C4464544C44083641410000007700E5
:1018B40000004141360808082A1C08081C2A0808A8
:0A18C400FFFFFFFFFF060909060001
:1018CE00000000000000005F000000070007001489
:1018DE007F147F14242A7F2A122313086462364948
:1018EE005522500005030000001C22410000412239
:1018FE001C00082A1C2A0808083E08080050300060
:10190E000008080808080030300000201008040203
:10191E003E5149453E00427F4000426151494621B9
:10192E0041454B311814127F1027454545393C4A25
:10193E004949300171090503364949493606494975
:10194E00291E00363600000056360000000814220C
:10195E0041141414141441221408000201510906F2
:10196E00324979413E7E1111117E7F494949363EF9
:10197E00414141227F4141221C7F494949417F0912
:10198E000901013E414151327F0808087F00417F25
:10199E0041002040413F017F081422417F404040DA
:1019AE00407F0204027F7F0408107F3E4141413E8A
:1019BE007F090909063E4151215E7F0919294646D4
:1019CE004949493101017F01013F4040403F1F20FD
:1019DE0040201F7F2018207F6314081463030478AF
:1019EE000403615149454300007F41410204081040
:1019FE002041417F0000040201020440404040406B
:101A0E00000102040020545454787F48444438386E
:101A1E0044444420384444487F3854545418087E73
:101A2E00090102081454543C7F0804047800447DD4
:101A3E0040002040443D00007F10284400417F407C
:101A4E00007C041804787C08040478384444443834
:101A5E007C14141408081414187C7C080404084818
:101A6E0054545420043F4440203C4040207C1C20D1
:101A7E0040201C3C4030403C44281028440C505020
:101A8E00503C4464544C44000836410000007F0032
:101A9E0000004136080008082A1C08081C2A0808FD
:101AAE00000000000000005F0000000700070014A7
:101ABE007F147F14242A7F2A122313086462364966
:101ACE005522500005030000001C22410000412257
:101ADE001C00082A1C2A0808083E0808005030007E
:101AEE000008080808080030300000201008040222
:101AFE003E5149453E00427F4000426151494621D8
:101B0E0041454B311814127F1027454545393C4A43
:101B1E004949300171090503364949493606494993
:101B2E00291E00363600000056360000000814222A
:101B3E004114141414144122140800020151090610
:101B4E00324979413E7E1111117E7F494949363E17
:101B5E00414141227F4141221C7F494949417F0930
:101B6E000901013E414151327F0808087F00417F43
:101B7E0041002040413F017F081422417F404040F8
:101B8E00407F0204027F7F0408107F3E4141413EA8
:101B9E007F090909063E4151215E7F0919294646F2
:101BAE004949493101017F01013F4040403F1F201B
:101BBE0040201F7F2018207F6314081463030478CD
:101BCE000403615149454300007F4141020408105E
:101BDE002041417F00000402010204404040404089
:101BEE00000102040020545454787F48444438388D
:101BFE0044444420384444487F3854545418087E92
:101C0E00090102081454543C7F0804047800447DF2
:101C1E0040002040443D00007F10284400417F409A
:101C2E00007C041804787C08040478384444443852
:101C3E007C14141408081414187C7C080404084836
:101C4E0054545420043F4440203C4040207C1C20EF
:101C5E0040201C3C4030403C44281028440C50503E
:101C6E00503C4464544C44000836410000007F0050
:101C7E0000004136080008082A1C08081C2A08081B
:101C8E00000000005C000C000C7C287C7C447C2452
:101C9E001048285408000C00384400443800201026
:101CAE00081038108040001010100040002010085E
:101CBE00384438007C006454484454281C107C4C32
:101CCE00542438542004740C2854280854380050D6
:101CDE000080500010284428282844281004540856
:101CEE00384C5C7814787C54283844447C44387CD6
:101CFE0054447C14043844347C107C007C00204016
:101D0E003C7C106C7C40407C087C7C047C7C447C5D
:101D1E007C14083844787C1468485424047C047C71
:101D2E00407C3C403C7C207C6C106C1C601C6454E1
:101D3E004C7C4400081020447C00080408808080FD
:031D4E0004080086
:091D510035783720466F6E7400EE
:0E1D5A0035783720466F6E74202876322900C7
:071D68006D696B726F45000D
:091D6F0038783720466F6E7400CD
:101D7800335835204341504954414C53204F4E4C21
:021D8800590000
:020000040030CA
:0D000100220E0EFF0181FF0FC00FE00F4027
:00000001FF
