:040000004EEF38F097
:1000080000C015F0F2A417D0F2940B0ED76EDC0ED8
:10001800D66E010E01013C6F832B3C0E835D02E31B
:10002800836B809884B005D084B203D00201322B50
:0C00380002D00201326B15C000F0110074
:0C0044001A0E0D6E0D2EFED700001200EB
:0A005000F9DF818AF7DF819A1200C0
:0C005A00020E0D6E0D2EFED700001200ED
:10006600FF0E956EF7DFF6DF818E819A818C818A8D
:10007600E6DF83CFCCF2819A819CECDFEBDF956AD9
:06008600CCC200F01200E4
:0E008C00819A818E819CCCC283FFDCDF120042
:10009A007F0E0201CC15016E01C0CCF201AC03D077
:0C00AA008184819602D08194818612002E
:1000B600819E819CB80E0201CC11836EC6DF1200B0
:1000C6007F0E0201CC15006E00C0CCF2819E819C91
:1000D600BF0E001600C0CCF2008C00C0CCF200C0EF
:0600E60083FFB3DF1200EE
:1000EC00000E0201C65D0AE3C6517F0807E3000E4D
:1000FC00C75D04E3C7513F0801E301D04AD0C6C233
:10010C00CCF2C5DFC7C2CCF2CC33CC9FCC33CC9F66
:10011C00CC33CC9FCADFC6C2CCF2CFDF9EDF00C08F
:10012C00CBF29BDF00C0CBF2C7C2CCF2CC33CC9F5E
:10013C00CC33CC9FCC33CC9FB8DFC6C2CCF2BDDF66
:10014C00070EC715006E00C0C9F200C001F0010E09
:10015C00006E015004E000360090FF0FFBD700C08A
:10016C00C9F2001CCA6F09D0CA51CB170FD0C951A4
:10017C00CB130CD0C951CB1B09D0C851000AF4E0E9
:10018C00C851010AF4E0C851020AF4E0CBC2CCF227
:04019C0077DF1200F7
:0E01A000026A016A006A086A036A000E120011
:0801AE000AAE029E000E1200D1
:1001B6000B840BAEE6EF00F0010E036E026A016AD5
:0A01C600006A0A360232FF0E120032
:1001D000000E0201C05D04E3C0513F0801E301D0FD
:1001E00027D0000EBE5DD8A0BE6BBE517F0802E2D4
:1001F0007F0EBE6F000EBF5DD8A0BF6BBF517F08E2
:1002000002E27F0EBF6FBE51BF5D06E2BEC2C2F208
:10021000BFC2BEF2C2C2BFF2BE51BF5D09E3BEC2E1
:10022000C6F2C0C2C7F2C1C2C8F260DFBE2BF4D7AB
:020230001200BA
:100232000B820BAE23EF01F00368026801680068CD
:080242000A360232FF0E120021
:10024A000201BE517F0804E3BF513F0801E301D018
:10025A00A1D03F0EBE15C56FBFC201F00132019E8B
:10026A000132019E0132019E01C0C1F2015007080C
:10027A0001E290D0070EBF15006E00C0C2F2005214
:10028A00D8B46BD0C2C200F0C0C2C3F2005004E0BE
:10029A00C337C391FF0FFBD7BEC2CCF2F9DEC5C28A
:1002AA00CCF20CDFC1C2CCF201DFD8DE00C0C4F24E
:1002BA00D5DE00C0C4F2425312E1C2510808006EF2
:1002CA00016A000E015A00C001F0FF0E006E0150D3
:1002DA0004E00032009EFF0FFBD70050C417C35141
:1002EA00C413C5C2CCF2EADEC4C2CCF2CADEC12B48
:1002FA00C151070801E24ED0C5C2CCF2DFDEC1C24D
:10030A00CCF2D4DEC2510808006E016A000E015A0E
:10031A00C0C2C3F2005004E0C333C39FFF0FFBD730
:10032A009DDE00C0C4F29ADE00C0C4F242530CE162
:10033A00C2C201F0FF0E006E015004E000360090C8
:10034A00FF0FFBD70050C417C351C413C5C2CCF268
:10035A00B5DEC4C2CCF295DE1DD0BEC2CCF298DEA8
:10036A00C5C2CCF2ABDEC1C2CCF2A0DE42530AE077
:10037A0075DE00C0C4F272DE00C0C4F20050C011C3
:10038A00C46F02D0C0C2C4F2C5C2CCF297DEC4C2E6
:06039A00CCF277DE120038
:1003A000220E0C6E086A096A0A6A0B6A0C06D8B437
:1003B0001FD0D8900B320A3209320832033202328F
:1003C00001320032D8A0F2D70C06D8B409D00450BC
:1003D00008260550092206500A2207500B22EAD7A8
:1003E000045008260550092206500A2207500B2205
:0203F0001200F9
:1003F2000B6A0A6A096A00500402F4CF09F0F3CFCB
:1004020008F001500502F4CF0BF0F3CF0AF00050D0
:100412000502F3500926F4500A22E86A0B22015021
:100422000402F3500926F4500A22E86A0B2208C09B
:1004320000F009C001F00AC002F00BC003F0120084
:10044200060E0C6E2B0E0D6E0D2EFED70C2EFCD74B
:02045200120096
:100454000201BE6B7F0EBF6FC06B010EC16FB6DEB3
:10046400BE6B7F0EBF6F010EC06F010EC16FAEDE9B
:10047400BE6B7F0EBF6F3E0EC06F010EC16FA6DE56
:10048400BE6B7F0EBF6F3F0EC06F010EC16F9EDE4D
:02049400120054
:10049600819481860201B16BB15107080EE3B1C2A6
:1004A600CCF206DEB06BB0513F0805E3AFC2CCF22A
:1004B600EADDB02BF8D7B12BEFD781968184B16BEB
:1004C600B15107080EE3B1C2CCF2F2DDB06BB05108
:1004D6003F0805E3AFC2CCF2D6DDB02BF8D7B12B7F
:0404E600EFD712003A
:1004EA000CB0B7EF02F00CA25DEF03F00E6A000E3B
:1004FA000264CEEF02F0F00E0214D8A499EF02F0D3
:10050A00023A01380F0B02260138F00B016E00384F
:10051A000F0B01260038F00B006E08380F0B00266F
:10052A000838F00B086E0E84D89002BEB2EF02F0C3
:10053A0008360036013602360E2A02BEB2EF02F043
:10054A0008360036013602360E2A02BEB2EF02F033
:10055A0008360036013602360E2A0E50036453EF6F
:10056A0003F0035E0BBC08AE58EF03F0D880800E90
:10057A0008640030000E002201220222D8A058EF9F
:10058A0003F0023201320032034A5DEF03F058EF02
:10059A0003F001C002F000C001F008C000F0086AD0
:1005AA00000E0E86026405EF03F0F00E0214D8A4C2
:1005BA00EDEF02F0023A01380F0B02260138F00B78
:1005CA00016E00380F0B01260038F00B006E0E8406
:1005DA00D89002BEB2EF02F00036013602360E2A79
:1005EA0002BEB2EF02F00036013602360E2A02BE11
:1005FA00B2EF02F00036013602360E2AB2EF02F0EE
:10060A0001C002F000C001F0006A000E0E960E88CA
:10061A00026432EF03F0F00E0214D8A41DEF03F0C7
:10062A00023A01380F0B02260138F00B016E0E84D4
:10063A00D89002BEB2EF02F0013602360E2A02BE8E
:10064A00B2EF02F0013602360E2A02BEB2EF02F013
:10065A00013602360E2AB2EF02F001C002F0016A38
:10066A00000E0E86026462EF03F0F00E0214D8A4A4
:10067A0041EF03F0023A0E84D89002BEB2EF02F0C4
:10068A0002360E2A02BEB2EF02F002360E2A02BE6D
:10069A00B2EF02F002360E2AB2EF02F0010E0C6E31
:1006AA0085DD65EF03F0020E0C6E7CDD65EF03F06D
:1006BA00040E0C6EB9DD65EF03F0080E0C6E6BDDEF
:0206CA0012001C
:1006CC00AFC202F0B0C203F002C000F003C001F0F0
:1006DC00024A032A00C0E9FF01C0EAFFEE5201E022
:1006EC00F3D70201AF51025C006EB0510358016E9A
:0A06FC00010E005E000E015A12000C
:10070600020129512803F3CFBAF2F4CFBBF2000E4F
:10071600BBBFFF0EBC6FBD6FBA4BBB2B000EBBBF82
:10072600FF0EBC6FBD6F2D51AF5D006E016A000EEE
:10073600015A000E01BEFF0E026E036EBAC204F02D
:10074600BBC205F0BCC206F0BDC207F026DE00C083
:10075600BAF201C0BBF202C0BCF203C0BDF22A511C
:100766000024046E2B510120056E2C510220066ECA
:1007760004C0B3F205C0B4F206C0B5F204C0F6FF79
:1007860005C0F7FF06C0F8FF0900F5CFB8F2010E65
:100796000024BA6F000E0120BB6F000E0220BC6F52
:1007A600000E0320BD6FB66BB851B65D5AE2B76B4B
:1007B6002851B75D54E2B6512803F3CF00F0F4CFC9
:1007C60001F000502A25B36F01502B21B46F000EA3
:1007D60001BEFF0E2C21B56FB751B327000EB4230F
:1007E600B523B351BA25B36FB451BB21B46FB5511C
:1007F600BC21B56F18D0B96B1FD0B3C2F6FFB4C217
:10080600F7FFB5C2F8FF0900F5CFB9F215D0B3C2AC
:10081600F6FFB4C2F7FFB5C2F8FF0900F5CF00F046
:10082600001CB96F09D0B251000AE5E0B251010AC5
:10083600E4E0B251020AEBE0B651B025BE6FB7C292
:1008460000F0003600900036009000360090005010
:10085600B125BF6FB9C2C0F2F5DCB72BA9D7B62B4D
:08086600A3D7B8C200F0120094
:10086E000201A751070801E290D03C51A55D006E30
:10087E003DC201F0000E01563BC204F0000E056EA3
:10088E00B1DD00C0ADF201C0AEF2A6C2CCF214DCF6
:10089E00A7C2CCF209DCA96B3B51A95D52E2A6516D
:1008AE007F0801E272D0A6C2CCF24DEC00F0A7C2D6
:1008BE00CCF25BEC00F0A6C2CCF263EC00F033ECB1
:1008CE0000F000C0AAF233EC00F000C0AAF2A6C2FB
:1008DE00CCF24DEC00F0A7C2CCF25BEC00F0A6C25D
:1008EE00CCF263EC00F0AD513E25F66EAE513F21D9
:1008FE00F76E000EAEBFFF0E4021F86E0900F5CF69
:10090E0000F000C0ABF2AD4BAE2B001CAC6F09D0AB
:10091E00ACC2AAF20FD0ABC2AAF20CD0AB51AA1B3A
:10092E0009D0A851000AF4E0A851010AF4E0A85138
:10093E00020AF4E0AAC2CCF246EC00F0A62BA92BD8
:10094E00ABD7A6C2CCF24DEC00F0A7C2CCF25BEC5A
:10095E0000F0A6C2CCF263EC00F0FF0EAB6FAC6BF6
:10096E000ED0ABC2AAF2ABC2CCF246EC00F00DD068
:10097E00ACC2AAF2ACC2CCF246EC00F006D0A85142
:0C098E00000AEFE0A851010AF3E012009B
:10099A000134083609360450085E0550D8A0053CD3
:1009AA00095E003601360F0E0C6E01340836093620
:1009BA00045000A006D0085E0550D8A0053C095E88
:1009CA0005D008260550D8B0053C09260036013660
:1009DA000C2EEBD700B006D0045008260550D8B02C
:0809EA00053C09260000120083
:1009F2000201AB6BA7C201F0010E006E015004E0D0
:100A020000360090FF0FFBD700C0AAF2A5C2E9FF93
:100A1200A6C2EAFF0050EE14016E0152010ED8A4E4
:100A2200000E006EA951001A18E0A851000804E255
:100A320007DD06DDA807F9D7A5C2E9FFA6C2EAFFCE
:100A4200AA51EE14016E0152010ED8A4000E006EDE
:100A5200A951001A02E0FF0EAB6FABC200F0120008
:100A6200A5C23EF2A6C23FF2A7C240F2AAC23CF21F
:100A7200ABC23DF2A8C23BF2A9C238F2010E02019A
:040A8200376F1200B8
:100A8600C7B409D01F0EC514016E0150000A03E158
:0A0A9600010E006E01D0006A12008C
:080AA0000B6A0B86FF0E120029
:100AA800086A080E0C6E003408360450085ED8B088
:0E0AB80002D00826D89000360C2EF5D712007A
:100AC600A5C2AFF2A6C2B0F2FEDD00C0ABF2A7C26D
:100AD600ACF2A5C2ADF2A6C2AEF2AA6BAB51AA5D4C
:100AE60014E2ADC2E9FFAEC2EAFFEECFAFF2ACC28E
:100AF600B0F2A8C2B1F2A9C2B2F202DE0050AC272F
:0C0B0600AC2BAD4BAE2BAA2BE9D7120094
:100B12000B800BAE95EF05F0026A0AAEFF0E026E75
:0C0B2200016E006E0A360232FF0E120057
:100B2E00025006180E6E086A096A0B6A03500764B3
:100B3E008AEF06F006500A6E068E028E03500B6E7A
:100B4E000750036E000E0B64DAEF05F00B50075ED4
:100B5E00D8B47BEF06F0070E076449EF06F0075E88
:100B6E0000C008F001C000F002C001F0026A074E9A
:100B7E007BEF06F007641EEF06F0075E00C008F07C
:100B8E0001C000F0016A074E7BEF06F00764FCEF30
:100B9E0005F0075E00C008F0006A074E7BEF06F016
:100BAE000764E3EF05F00AC002F005C001F004C0CF
:100BBE0000F0086AA7EF07F0030E0764EEEF05F0EA
:100BCE00075E08380F0B086E074E7BEF06F0D890C5
:100BDE000832074E7BEF06F0D8900832074E7BEFB7
:100BEE0006F0D89008327BEF06F0030E07640DEF87
:100BFE0006F0075E08380F0B086E0038F00B08265B
:100C0E0000380F0B006E074E7BEF06F0D8900032C7
:100C1E000832074E7BEF06F0D89000320832074EAE
:100C2E007BEF06F0D890003208327BEF06F0030E11
:100C3E00076435EF06F0075E08380F0B086E0038B4
:100C4E00F00B082600380F0B006E0138F00B002653
:100C5E0001380F0B016E074E7BEF06F0D890013274
:100C6E0000320832074E7BEF06F0D8900132003288
:100C7E000832074E7BEF06F0D89001320032083270
:100C8E007BEF06F0030E076466EF06F0075E08388A
:100C9E000F0B086E0038F00B082600380F0B006E95
:100CAE000138F00B002601380F0B016E0238F00BE5
:100CBE00012602380F0B026E074E7BEF06F0D8901E
:100CCE000232013200320832074E7BEF06F0D89026
:100CDE000232013200320832074E7BEF06F0D89016
:100CEE000232013200320832096A000E0EAE6FEF88
:100CFE0007F0081E001E011E021E082A00220122F5
:100D0E0002226FEF07F00750D8A490EF06F0A7EF7E
:100D1E0007F0096A02C00AF0028E068E0750035CC5
:100D2E00076ED8B462EF07F0070E076430EF07F0D6
:100D3E00075E0450096E0550046E0650056E066A75
:100D4E00074E62EF07F0070E076405EF07F0075E28
:100D5E000450096E0550046E056A074E62EF07F0E7
:100D6E00070E0764E3EF06F0075E0450096E046A8F
:100D7E00074E62EF07F0070E0764CAEF06F00AC0CF
:100D8E0002F0A7EF07F0030E0764D5EF06F0075E3B
:100D9E0009380F0B096E074E62EF07F0D890093233
:100DAE00074E62EF07F0D8900932074E62EF07F058
:100DBE00D890093262EF07F0030E0764F4EF06F0E5
:100DCE00075E09380F0B096E0438F00B092604383C
:100DDE000F0B046E074E62EF07F0D8900432093203
:100DEE00074E62EF07F0D89004320932074E62EFD9
:100DFE0007F0D8900432093262EF07F0030E076451
:100E0E001CEF07F0075E09380F0B096E0438F00B64
:100E1E00092604380F0B046E0538F00B042605382E
:100E2E000F0B056E074E62EF07F0D89005320432B5
:100E3E000932074E62EF07F0D890053204320932BC
:100E4E00074E62EF07F0D89005320432093262EF96
:100E5E0007F0030E07644DEF07F0075E09380F0B1E
:100E6E00096E0438F00B092604380F0B046E053892
:100E7E00F00B042605380F0B056E0638F00B052611
:100E8E0006380F0B066E074E62EF07F0D89006324B
:100E9E00053204320932074E62EF07F0D89006325F
:100EAE00053204320932074E62EF07F0D89006324F
:100EBE00053204320932086A000E0EAE6FEF07F0EB
:100ECE00091E041E051E061E092A042205220622DC
:100EDE000950082604500022055001220650022215
:100EEE000EBE86EF07F0D8A095EF07F00232013262
:100EFE0000320832033E95EF07F0A1EF07F0D8B0AD
:100F0E009BEF07F0000E081E001E011E021E082A8F
:100F1E000022012202220A7E9BEF07F0010E0C6EC8
:100F2E0075EC02F0A9EF07F0020E0C6E75EC02F0F4
:100F3E00A9EF07F0040E0C6E19EC01F0A9EF07F003
:060F4E00000E0C6E120003
:100F54000D6A086A0050D8B4000C04180A6E0ABE60
:100F64000D1E0B6A04AE02D0041E042A00AE02D089
:100F7400001E002A005004100A6E0ABE1FD004503E
:100F8400085E003600340836045008260036060E83
:100F94000C6E00340836045000B0085E00A0082629
:100FA40000360C2EF6D700A008260BB015D00DAED7
:100FB400000C001E002A081E082A000C04AE09D0EA
:100FC40000BE04D00050086E006AF1D7006A002AFF
:100FD400000C001E0B2AD3D7082A0450085CD8A49E
:0E0FE400E6D7086A002A00AEE2D7FF0C120022
:100FF200086A096A000E076203647EEF08F0025075
:1010020006180A6E075003267E0ED8A00FEF08F0CE
:10101200035ED8B083EF08F013EF08F0035ED8A0A8
:1010220088EF08F0028E068E02C00EF001C00BF0AF
:1010320000C00DF000500402F4CF0CF00150050284
:10104200F4CF00F0F3CF08F00402F3500C26F45072
:101052000822000E00220D500502F3500C26F45017
:101062000822000E002202500402F3500826F45017
:10107200002202500502016A000E0122F3500026EE
:10108200F45001220D500602F3500826F4500022BB
:10109200026A000E012202220B500602F3500026C1
:1010A200F4500122000E02220E500602F3500126D5
:1010B200F450022202BE66EF08F00836003601360E
:1010C20002360306D8B488EF08F079EF08F0D8802A
:1010D200800E08640030000E002201220222D8A0F5
:1010E20079EF08F0023201320032034A83EF08F04E
:1010F2000AAE029E000E8BEF08F0010ED0EC00F05B
:101102008BEF08F0020E19EC01F08BEF08F0040EE1
:06111200DBEC00F012000E
:10111800A6C2AAF20201AA51A85D0CE3A5C2BEF2BA
:10112800A7C2BFF2AAC2C0F2A9C2C1F2E8EC00F09D
:06113800AA2BF0D7120003
:10113E000201AF6B4BEC02F02AEC02F0010E010142
:04114E00846F120098
:10115200A5C22AF2A6C22BF2A7C22CF2A8C229F279
:10116200A9C241F2AAC22DF20201426BA9C228F21F
:101172002833289F2833289F2833289F070EA91534
:08118200006ED8A4282B120016
:10118A00800E02019F19006E800E000A005CD8B022
:10119A0064D19F510008016E01C09FF2800E0118B0
:1011AA00006E800E6E0A005CD8A0BAD0640E046E7F
:1011BA009FC200F0CADE120E0024056E000E00BEA9
:1011CA00FF0E066E000E062205C000F006C001F0F2
:1011DA00000E06BEFF0E026E036E00360090013648
:1011EA000236033600360090013602360336030E05
:1011FA000024F66E970E0120F76E000E0220F86E9C
:10120A000900F5CFA0F20900F5CFA1F20900F5CF48
:10121A00A2F20900F5CFA3F2640E046E9FC200F099
:10122A0094DE08C000F00A0E046E8FDE090E002458
:10123A00056E000E00BEFF0E066E000E062205C0E9
:10124A0000F006C001F0000E06BEFF0E026E036E2D
:10125A000036009001360236033600360090013619
:10126A0002360336030E0024F66E970E0120F76E3F
:10127A00000E0220F86E0900F5CF00F00900F5CF44
:10128A0001F00900F5CF02F00900F5CF03F0A0C282
:10129A0004F0A1C205F0A2C206F0A3C207F0A4DEC0
:1012AA0000C0A0F201C0A1F202C0A2F203C0A3F2E0
:1012BA000A0E046E9FC200F048DE08C000F000C0AB
:1012CA0001F0000E00BEFF0E026E036E046E0136C0
:1012DA00019002360336043601360190023603368F
:1012EA000436030E0124F66E970E0220F76E000EE6
:1012FA000320F86E0900F5CF00F00900F5CF01F0E0
:10130A000900F5CF02F00900F5CF03F0A0C204F0FE
:10131A00A1C205F0A2C206F0A3C207F065DEFBD1A6
:10132A00800E0A0A006E800E9F19005C6EE20A0E99
:10133A00046E9FC200F009DE090E0024056E000E3D
:10134A0000BEFF0E066E000E062205C000F006C0A3
:10135A0001F0000E06BEFF0E026E036E003600900C
:10136A00013602360336003600900136023603365D
:10137A00030E0024F66E970E0120F76E000E02206F
:10138A00F86E0900F5CFA0F20900F5CFA1F2090025
:10139A00F5CFA2F20900F5CFA3F20A0E046E9FC29E
:1013AA0000F0D3DD08C000F000C001F0000E00BE5E
:1013BA00FF0E026E036E046E01360190023603368A
:1013CA00043601360190023603360436030E012430
:1013DA00F66E970E0220F76E000E0320F86E0900D3
:1013EA00F5CF00F00900F5CF01F00900F5CF02F0C2
:1013FA000900F5CF03F0A0C204F0A1C205F0A2C211
:10140A0006F0A3C207F0F0DD86D19FC200F0000EFD
:10141A009FBFFF0E016E026E036E0036009001360A
:10142A000236033600360090013602360336030EC2
:10143A000024F66E970E0120F76E000E0220F86E59
:10144A000900F5CF00F00900F5CF01F00900F5CF4A
:10145A0002F00900F5CF03F05ED1800E9F19006EED
:10146A00800E6E0A005CD8A0BAD0640E046E9FC2C9
:10147A0000F06BDD120E0024056E000E00BEFF0E9A
:10148A00066E000E062205C000F006C001F0000E2E
:10149A0006BEFF0E026E036E00360090013602365B
:1014AA00033600360090013602360336370E002422
:1014BA00F66E970E0120F76E000E0220F86E0900F4
:1014CA00F5CFA0F20900F5CFA1F20900F5CFA2F2FB
:1014DA000900F5CFA3F2640E046E9FC200F035DD59
:1014EA0008C000F00A0E046E30DD090E0024056EF5
:1014FA00000E00BEFF0E066E000E062205C000F0AA
:10150A0006C001F0000E06BEFF0E026E036E003624
:10151A000090013602360336003600900136023654
:10152A000336370E0024F66E970E0120F76E000E72
:10153A000220F86E0900F5CF00F00900F5CF01F09E
:10154A000900F5CF02F00900F5CF03F0A0C204F0BC
:10155A00A1C205F0A2C206F0A3C207F045DD00C091
:10156A00A0F201C0A1F202C0A2F203C0A3F20A0EC5
:10157A00046E9FC200F0E9DC08C000F000C001F070
:10158A00000E00BEFF0E026E036E046E013601905D
:10159A000236033604360136019002360336043623
:1015AA00370E0124F66E970E0220F76E000E032006
:1015BA00F86E0900F5CF00F00900F5CF01F0090037
:1015CA00F5CF02F00900F5CF03F0A0C204F0A1C2E2
:1015DA0005F0A2C206F0A3C207F006DD9CD0800E79
:1015EA000A0A006E800E9F19005C6EE20A0E046EF3
:1015FA009FC200F0AADC090E0024056E000E00BE90
:10160A00FF0E066E000E062205C000F006C001F0AD
:10161A00000E06BEFF0E026E036E00360090013603
:10162A000236033600360090013602360336370E8C
:10163A000024F66E970E0120F76E000E0220F86E57
:10164A000900F5CFA0F20900F5CFA1F20900F5CF04
:10165A00A2F20900F5CFA3F20A0E046E9FC200F0AF
:10166A0074DC08C000F000C001F0000E00BEFF0EDE
:10167A00026E036E046E013601900236033604369A
:10168A0001360190023603360436370E0124F66E0F
:10169A00970E0220F76E000E0320F86E0900F5CFB0
:1016AA0000F00900F5CF01F00900F5CF02F00900BA
:1016BA00F5CF03F0A0C204F0A1C205F0A2C206F061
:1016CA00A3C207F091DC27D09FC200F0000E9FBF93
:1016DA00FF0E016E026E036E00360090013602366E
:1016EA00033600360090013602360336370E0024E0
:1016FA00F66E970E0120F76E000E0220F86E0900B2
:10170A00F5CF00F00900F5CF01F00900F5CF02F09E
:08171A000900F5CF03F01200F5
:101722000A6A0350D8A40A800750D8A40A820A5031
:10173200D8B4F4EF0BF0030AD8B4ADEF0BF00AB053
:10174200A8EF0BF006AEF2EF0BF0F0EF0BF002AEEB
:10175200F0EF0BF0F2EF0BF00250800B0A6E029EDC
:101762000650800B069E0A18D8B4BEEF0BF00A5042
:10177200D8B4F0EF0BF0F2EF0BF00750035CD8B4E3
:10178200C8EF0BF0D8A0E4EF0BF0EAEF0BF0065035
:10179200025CD8B4D2EF0BF0D8A0E4EF0BF0EAEF82
:1017A2000BF00550015CD8B4DCEF0BF0D8A0E4EFED
:1017B2000BF0EAEF0BF00450005CD8B4F4EF0BF03E
:1017C200D8B0EAEF0BF00A52D8B4F2EF0BF0F0EF18
:1017D2000BF00A52D8B4F0EF0BF0F2EF0BF0D88016
:0E17E2001200D8901200D880D8841200120095
:1017F000840E0201A56F0F0EA66F020EA76F010ED9
:10180000A86F9FC2A9F2F9EC04F00050FF0A1AE198
:10181000840EA56F0F0EA66F020EA76F010EA86FA4
:101820009FC2A9F2F9EC04F00050FF0A01E1F0D7E1
:101830000101836B80B803D08088006A04D0FF0E5A
:08184000006E01D0006A1200E5
:101848000201A46B3751000A0EE1050E3B6F070E2B
:10185800386F800E3E6F920E3F6F000E406F200E65
:101868003C6F000E3D6FA4519F25E96E000EA0212C
:10187800EA6EEE5217E0A4519F25E96E000EA021F2
:10188800EA6EEECFA5F2A1C2A6F2A2C2A7F2A3C247
:10189800A8F237EC04F03B51010F006E0050A1276D
:0618A800A42BE1D71200A1
:1018AE000450000A12E10550000A0FE10650000A2A
:1018BE000CE10750000A09E1FF0E006EFF0E016EEB
:1018CE007F0E026EFF0E036EA8D0086A096A0750DB
:1018DE00D8B402EF0DF00350D8B407EF0DF002505C
:1018EE0006180A6E028E068E0E6A02C008F001C03D
:1018FE000CF000C00DF004500D5E0550D8A0053C54
:10190E000C5E0650D8A0063C085E086A0C6A0D6A8A
:10191E00D8A099EF0CF0D890023201320032083282
:10192E00010E0E6E0750035ED8A0A6EF0CF07E0ED1
:10193E000E240326D8B00CEF0DF0ACEF0CF07E0E9B
:10194E000E240326D8A011EF0DF0180E0B6E0D36D7
:10195E000C3608360036013602360E360450005E5E
:10196E000550D8A0053C015E0650D8A0063C025E8C
:10197E0006340E120EA0C7EF0CF00D80D2EF0CF055
:10198E00045000260550D8B0053C01260650D8B0AC
:10199E00062802260D900B2EAEEF0CF0F8EF0CF091
:1019AE00D8900036013602360E360450005E0550D1
:1019BE00D8A0053C015E0650D8A0063C025E063457
:1019CE000E10010B0D26D8B00C2AD8B4082AD8A4B4
:1019DE00F8EF0CF008320C320D32032AD8B40CEFAB
:1019EE000DF00AAE089E0850026E0C50016E0D509E
:1019FE00006E14EF0DF0010E50EC05F014EF0DF02B
:101A0E00020ED0EC00F014EF0DF0040E19EC01F004
:0C1A1E0014EF0DF0080EDBEC00F01200DD
:101A2A0003500718D8A429EF0DF002500618D8A4BD
:101A3A0029EF0DF001500518D8A429EF0DF0005038
:0E1A4A000418D8B4D8841200D89412001200E8
:101A580002019F6BA06BA051120802E19F518E08F2
:101A680009E343EC05F0005201E004D002019F4B6A
:101A7800A02BF1D70201120EA05D02E18F0E9F5D2F
:101A880003E37B0E006E05D0C580C5A001D0FDD74D
:041A9800006A1200CE
:101A9C00000E0201A15D04E3A1517F0801E301D016
:101AAC0028D0000E9F5DD8A09F6B9F513F0802E28B
:101ABC003F0E9F6F000EA05DD8A0A06BA0513F08F9
:101ACC0002E23F0EA06F9F51A05D06E29FC2A3F2FF
:101ADC00A0C29FF2A3C2A0F29F51A05D0AE3A1C2D3
:101AEC00C6F29FC2C7F2A2C2C8F276EC00F09F2BDE
:041AFC00F3D712000A
:101B00009E969FC2C9FFC7A401D0FDD79EB601D043
:101B1000FDD7C5BC02D0006A03D0C584020E006E9A
:021B20001200B1
:101B2200840E0201A56F0F0EA66F010EA76F010EA4
:101B3200A86F9FC2A9F2F9EC04F00050FF0A0AE173
:101B42000101836B80B803D08088006A04D0FF0E45
:081B5200006E01D0006A1200D0
:101B5A000050086E0150006E0250016E0350026E72
:101B6A00036A0B6A0C6A9E0E036E0A6A020E0C6EF8
:061B7A0075EC02F0120000
:101B8000400E0201A56F960EA66F000EA76F030E02
:101B9000A86F050EA96F200EAA6F000EAB6F31EC77
:041BA00005F012003A
:081BA400067E97EC05F012002B
:101BAC000C6A0E6A0250D8A4EFEF0DF001C002F0DF
:101BBC0000C001F0006A0E860250D8A4EFEF0DF0C1
:101BCC0001C002F0016A0E960E880250D8B401EFE3
:101BDC000EF00E50035ED8A4D8A007EF0EF0D890EC
:101BEC0002BE0DEF0EF0003601360236032EF6EF74
:101BFC000DF007EF0EF0010E0C6ED0EC00F011EFB3
:101C0C000EF0020E0C6EDBEC00F011EF0EF0040E79
:081C1C000C6ED7EC00F0120081
:101C24009FEC08F00201A56BA66B7F0EA76F080E50
:101C3400A86FA96B8CEC08F0640EA56F8E0EA66FCE
:101C4400000EA76F0A0EA86F0B0EA96F410EAA6FA4
:101C5400000EAB6FA9EC08F07D0E496F010E4A6FC0
:101C640049C2A5F24AC2A6F22A0EA76FA86B010EBA
:101C7400A96F63EC05F00E0EA56F8C0EA66F000E17
:101C8400A76F0F0EA86F180EA96F2D0EAA6F000E66
:101C9400AB6FA9EC08F0A56BA66B7F0EA76F090EBE
:0C1CA400A86F020EA96F8CEC08F0120073
:101CB0000B6A0C6A086A0350D8B4DCEF0EF002C05D
:101CC0000AF0028E9E0E035E03AECCEF0EF0036CA4
:101CD000080E035CD8A099EF0EF0036E083600C022
:101CE00008F001C000F002C001F0026A080E035CB7
:101CF000D8A099EF0EF0036E083600C008F001C0BE
:101D000000F0016A080E035CD8A099EF0EF0036E94
:101D1000083600C008F0006A080E035CD8A099EFEE
:101D20000EF0036E0836086A0350D8A4D890A5EFC9
:101D30000EF00350D8B4A5EF0EF0D8900232013265
:101D400000320832032E9DEF0EF00BBC08A0B6EF58
:101D50000EF0D8A0B6EF0EF0082AD8B4002AD8B4F6
:101D6000012AD8B4022A02BEE0EF0EF00AAEDCEF80
:101D70000EF0021E011E001E081E082AD8B4002AFA
:101D8000D8B4012AD8B4022ADCEF0EF0026A016A44
:101D9000006A086ADCEF0EF00B800BAEE7EF0EF086
:101DA000026A0AAEE7EF0EF0026E016E006E086E78
:101DB0000A360232E7EF0EF00C6A000EE8EF0EF082
:101DC000010E0C6E000E89EC05F0E8EF0EF0FF0E30
:101DD0000250036E0150026E0050016E0850006EFA
:021DE0001200EF
:101DE2000B6A0A6A096A086A0E6A033408360450E2
:101DF200085E0550D8A0053C095E0650D8A0063CF6
:101E02000A5E0750D8A0073C0B5EE86AD8A0010E14
:101E12000E5E0336070E0C6E0334083609360A3698
:101E22000B360E36045003A012D0085E0550D8A01F
:101E3200053C095E0650D8A0063C0A5E0750D8A0B1
:101E4200073C0B5EE86AD8A0010E0E5E11D0082690
:101E52000550D8B0053C09260650D8B0063C0A26E3
:101E62000750D8B0073C0B26E86AD8B0010E0E2600
:101E720003360C2ED1D70234083609360A360B3611
:101E82000E36045003A012D0085E0550D8A0053CBF
:101E9200095E0650D8A0063C0A5E0750D8A0073C4F
:101EA2000B5EE86AD8A0010E0E5E11D0082605501E
:101EB200D8B0053C09260650D8B0063C0A26075081
:101EC200D8B0073C0B26E86AD8B0010E0E260236BF
:101ED200070E0C6E0234083609360A360B360E36F9
:101EE200045002A012D0085E0550D8A0053C095E3D
:101EF2000650D8A0063C0A5E0750D8A0073C0B5EED
:101F0200E86AD8A0010E0E5E11D008260550D8B09E
:101F1200053C09260650D8B0063C0A260750D8B020
:101F2200073C0B26E86AD8B0010E0E2602360C2EAC
:101F3200D1D70134083609360A360B360E3604502C
:101F420002A012D0085E0550D8A0053C095E0650DA
:101F5200D8A0063C0A5E0750D8A0073C0B5EE86A90
:101F6200D8A0010E0E5E11D008260550D8B0053C4F
:101F720009260650D8B0063C0A260750D8B0073CBE
:101F82000B26E86AD8B0010E0E260136070E0C6E3B
:101F92000134083609360A360B360E36045001A0D3
:101FA20012D0085E0550D8A0053C095E0650D8A0A4
:101FB200063C0A5E0750D8A0073C0B5EE86AD8A030
:101FC200010E0E5E11D008260550D8B0053C092638
:101FD2000650D8B0063C0A260750D8B0073C0B265C
:101FE200E86AD8B0010E0E2601360C2ED1D7003485
:101FF200083609360A360B360E36045001A012D0C6
:10200200085E0550D8A0053C095E0650D8A0063CE3
:102012000A5E0750D8A0073C0B5EE86AD8A0010E02
:102022000E5E11D008260550D8B0053C0926065090
:10203200D8B0063C0A260750D8B0073C0B26E86AFF
:10204200D8B0010E0E260036070E0C6E003408368C
:1020520009360A360B360E36045000A012D0085E3E
:102062000550D8A0053C095E0650D8A0063C0A5E81
:102072000750D8A0073C0B5EE86AD8A0010E0E5E9E
:1020820011D008260550D8B0053C09260650D8B014
:10209200063C0A260750D8B0073C0B26E86AD8B09F
:1020A200010E0E2600360C2ED1D700B00ED00450F1
:1020B20008260550D8B0053C09260650D8B0063C83
:0C20C2000A260750D8B0073C0B2612007D
:1020CE000B6A0C6A0A6A086A0350D8B4EFEF10F074
:1020DE00028E9E0E035E03BE7AEF10F0D8B47AEF36
:1020EE0010F0DFEF10F0036C080E035CD8A0ACEF1D
:1020FE0010F0036E083600C008F001C000F002C0F8
:10210E0001F0026A080E035CD8A0ACEF10F0036E6B
:10211E00083600C008F001C000F0016A080E035C2A
:10212E00D8A0ACEF10F0036E083600C008F0006ABD
:10213E00080E035CD8A0ACEF10F0036E0836086AE8
:10214E000350D8A4D890B8EF10F00350D8B4B8EF1D
:10215E0010F0D8900232013200320832032EB0EF66
:10216E0010F00BBC08A0C9EF10F0D8A0C9EF10F00A
:10217E00082AD8B4002AD8B4012AD8B4022A02BE3A
:10218E00F3EF10F00AAEEFEF10F0021E011E001E6C
:10219E00081E082AD8B4002AD8B4012AD8B4022AB4
:1021AE00EFEF10F0026A016A006A086AEFEF10F0B2
:1021BE000B800BAEF9EF10F0026A0AAEF9EF10F0D9
:1021CE00026E016E006E086E0A360232F9EF10F0E2
:1021DE00000E0C6AFAEF10F0010E0C6E89EC05F091
:1021EE00FAEF10F0FF0E0250036E0150026E005017
:0821FE00016E0850006E120092
:102206006E0E02019F5DD8A0CAD0640E046E9FC2F6
:1022160000F054EC05F0120E0024056E066A000E5E
:10222600062205C000F006C001F0000E06BEFF0E35
:10223600026E036E00360090013602360336003613
:102246000090013602360336030E0024F66E970E12
:102256000120F76E000E0220F86E0900F5CF00F09F
:102266000900F5CF01F00900F5CF02F00900F5CF1E
:1022760003F0000E046E000E056E000E066E7E0E56
:10228600076EF9EC07F000C0A0F201C0A1F202C08F
:10229600A2F203C0A3F2640E046E9FC200F054ECD7
:1022A60005F008C000F00A0E046E54EC05F0090EA5
:1022B6000024056E066A000E062205C000F006C060
:1022C60001F0000E06BEFF0E026E036E0036009091
:1022D60001360236033600360090013602360336E2
:1022E600030E0024F66E970E0120F76E000E0220F4
:1022F600F86E0900F5CF00F00900F5CF01F00900EE
:10230600F5CF02F00900F5CF03F0A0C204F0A1C298
:1023160005F0A2C206F0A3C207F0F9EC07F000C070
:10232600A0F201C0A1F202C0A2F203C0A3F20A0EFB
:10233600046E9FC200F054EC05F008C000F000C027
:1023460001F0000E026E036E046E01360190023635
:102356000336043601360190023603360436030E80
:102366000124F66E970E0220F76E000E0320F86E1B
:102376000900F5CF00F00900F5CF01F00900F5CF0F
:1023860002F00900F5CF03F0A0C204F0A1C205F0E7
:10239600A2C206F0A3C207F0F9EC07F0B1D09F5134
:1023A6000A08D8B07ED00A0E046E9FC200F054EC24
:1023B60005F0090E0024056E066A000E062205C009
:1023C60000F006C001F0000E06BEFF0E026E036EA0
:1023D600003600900136023603360036009001368C
:1023E60002360336030E0024F66E970E0120F76EB2
:1023F600000E0220F86E0900F5CF00F00900F5CFB7
:1024060001F00900F5CF02F00900F5CF03F0000E48
:10241600046E000E056E000E066E7E0E076EF9EC5B
:1024260007F000C0A0F201C0A1F202C0A2F203C0F0
:10243600A3F20A0E046E9FC200F054EC05F008C029
:1024460000F000C001F0000E026E036E046E01364D
:102456000190023603360436013601900236033601
:102466000436030E0124F66E970E0220F76E000E58
:102476000320F86E0900F5CF00F00900F5CF01F052
:102486000900F5CF02F00900F5CF03F0A0C204F071
:10249600A1C205F0A2C206F0A3C207F0F9EC07F04C
:1024A6002FD09FC200F0000E016E026E036E003642
:1024B60000900136023603360036009001360236A9
:1024C6000336030E0024F66E970E0120F76E000EFB
:1024D6000220F86E0900F5CF00F00900F5CF01F0F3
:1024E6000900F5CF02F00900F5CF03F0000E046EE7
:1024F600000E056E000E066E7E0E076EF9EC07F0F6
:022506001200C1
:1025080002019F51390806E3300E9F5D03E3010E77
:08251800006E01D0006A120000
:04252000C58412005C
:10252400600E0201A56F940EA66F000EA76F050E34
:10253400A86F070EA96F200EAA6F000EAB6F31ECC7
:0425440005F012008C
:102548000450000A08E10550000A05E1FF0E006E7C
:102558007F0E016E58D00D6A096A086A0150001092
:10256800D8B4000C015005180A6E0ABE0D1E0B6A7D
:1025780005AE05D0041E051E042AD8B4052A01AEEE
:1025880005D0001E011E002AD8B4012A01500510EA
:102598000A6E0ABE10D0CDEC04F00BB020D00DAE00
:1025A800000C001E011E002AD8B4012A081E091EAC
:1025B800082AD8B4092A000C05AE0DD001BE07D0F0
:1025C8000150096E0050086E016A006AE8D7016A76
:1025D800006A002A000C011E001E0B2ADDD7082AFB
:1025E800D8B4092A0450085CD8A4D9D70550095C86
:1025F800D8A4D5D7096A086A002AD8B4012A01AE36
:08260800CED70000FF0C120008
:102610002CEC0DF0D00E02019F6F80EC0DF07FC20C
:102620009FF280EC0DF080C29FF280EC0DF078DF1D
:02263000120096
:10263200C0EC0DF0A60E496F010E4A6F49C29FF21F
:102642004AC2A0F2050EA16F020EA26F010EA36F85
:1026520024EC0CF0030EA56F100EA66F150EA76FDB
:10266200170EA86F020EA96F8CEC08F0150E0B6EF8
:102672004B0E0C6EBE0E0D6E0D2EFED70C2EFCD721
:0A2682000B2EFAD700004DDF120006
:10268C0012EC0EF0970E9F6F010EA06F0C0EA16F47
:10269C00020EA26F010EA36F24EC0CF09F0E9F6F25
:1026AC00010EA06F0C0EA16F030EA26F010EA36F93
:1026BC0024EC0CF0850E9F6F010EA06F0C0EA16F19
:1026CC00040EA26F010EA36F24EC0CF08C0E9F6F06
:1026DC00010EA06F0C0EA16F050EA26F010EA36F61
:1026EC0024EC0CF0AD0E9F6F010EA06F0C0EA16FC1
:0E26FC00060EA26F010EA36F24EC0CF012006C
:10270A0002019F6B91EC0DF00050FF0A25E10101D7
:10271A00AB51000A21E102019F6B91EC0DF00050D0
:10272A00FF0A01E1F8D7460E0201BE6F6B0EBF6FBA
:10273A00380EC06FC16BE8EC00F0460EBE6F4B0E50
:10274A00BF6F380EC06F010EC16FE8EC00F00101D7
:10275A00AC6B010EAB6FB2D002019F6B91EC0DF026
:10276A000050FF0A26E10101AB51010A22E10201F0
:10277A009F6B91EC0DF00050FF0A01E1F8D7460E6D
:10278A000201BE6F6B0EBF6F380EC06FC16BE8ECF3
:10279A0000F04E0EBE6F530EBF6F380EC06F010EA3
:1027AA00C16FE8EC00F0010E0101AC6F020EAB6FD5
:1027BA0085D002019F6B91EC0DF00050FF0A26E1D3
:1027CA000101AB51020A22E102019F6B91EC0DF06B
:1027DA000050FF0A01E1F8D7460E0201BE6F6B0EE8
:1027EA00BF6F380EC06FC16BE8EC00F0560EBE6FBB
:1027FA005B0EBF6F380EC06F010EC16FE8EC00F0C0
:10280A00020E0101AC6F030EAB6F58D002019F6B31
:10281A0091EC0DF00050FF0A26E10101AB51030AC9
:10282A0022E102019F6B91EC0DF00050FF0A01E1D9
:10283A00F8D7460E0201BE6F6B0EBF6F380EC06F1F
:10284A00C16BE8EC00F05E0EBE6F630EBF6F380E10
:10285A00C06F010EC16FE8EC00F0030E0101AC6F0E
:10286A00040EAB6F2BD002019F6B91EC0DF0005060
:10287A00FF0A24E10101AB51040A20E102019F6B26
:10288A0091EC0DF00050FF0A01E1F8D7460E020163
:10289A00BE6F6B0EBF6F380EC06FC16BE8EC00F0F5
:1028AA00660EBE6F6B0EBF6F380EC06F010EC16F22
:0E28BA00E8EC00F0040E0101AC6FAB6B1200F5
:1028C8004FC200F0000E016E100E046E270E056E4A
:1028D800F9EC01F000C043F201C044F250C200F02C
:1028E800000E016EE80E046E030E056EF9EC01F0A1
:1028F80000C04DF201C04EF2640E02015103F3CF45
:102908004BF2F4CF4CF20A0E5203F3CF45F2F4CF58
:0C29180046F253C247F2000E486F120056
:1029240002019F6B91EC0DF00050FF0A25E10101BB
:10293400AB51000A21E102019F6B91EC0DF00050B4
:10294400FF0A01E1F8D7460E0201BE6F640EBF6FA5
:10295400280EC06FC16BE8EC00F0460EBE6F4A0E45
:10296400BF6F280EC06F010EC16FE8EC00F00101CB
:10297400AC6B010EAB6F2CD002019F6B91EC0DF090
:102984000050FF0A25E10101AB51010A21E10201D6
:102994009F6B91EC0DF00050FF0A01E1F8D7460E51
:1029A4000201BE6F640EBF6F280EC06FC16BE8ECEE
:1029B40000F0560EBE6F5A0EBF6F280EC06F010E88
:1029C400C16FE8EC00F0020E0101AC6F020EAB6FB8
:1029D40002019F6B91EC0DF00050FF0A24E101010C
:1029E400AB51020A20E102019F6B91EC0DF0005003
:1029F400FF0A01E1F8D7460E0201BE6F640EBF6FF5
:102A0400280EC06FC16BE8EC00F05E0EBE6F630E63
:102A1400BF6F280EC06F010EC16FE8EC00F0030E0B
:082A24000101AC6FAB6B120065
:102A2C0000C008F00150006E016A026A036A0B6A6A
:102A3C000C6A016A026A036A960E036E0A6A00AE99
:102A4C002EEF15F0081E001E082AD8B4002A0A8E94
:102A5C0000C001F008C000F0086A026AD6EC0DF064
:022A6C00120056
:102A6E009E96C5869EB601D0FDD7C9CF01F0020154
:102A7E007F51000A02E1C58A01D0C59A9E96C5888B
:0C2A8E009EB601D0FDD701C000F0120080
:0A2A9A00C582C5A201D0FDD71200CD
:102AA400A6A202D00000FCD7A69C80C2AAFF7FC2C7
:102AB400A9FF81C2A8FFA69EA684F2CF00F0F29ED1
:102AC400550EA76EAA0EA76EA68200BE02D0F29E75
:082AD40001D0F28EA69412005D
:102ADC00086A096A100E0C6E013408360936045067
:102AEC00085E0550D8A0053C095ED8B007D004504C
:102AFC0008260550D8B0053C0926D890003601367A
:062B0C000C2EEAD71200B6
:102B1200A69C80C2AAFF7FC2A9FFA69EA680A8CFBC
:042B220000F01200AD
:102B26000201976B986B8B6B8C6B81C200F082C233
:102B360001F083C202F0010E8127000E8223832357
:102B460000C0F6FF01C0F7FF02C0F8FF0900F5CF8D
:102B560000F000C088F20052D8B4CBEF25F08851BF
:102B6600250A0BE07FC2E1FF80C2E2FF88C2E6FFD2
:102B76007F4B802B974B982BD8D7896B8A6B8B6BA7
:102B86008C6B23D08B87010E8127000E8223832333
:102B960059D08B81010E8127000E8223832352D0C8
:102BA6008B83010E8127000E822383234BD08C87D3
:102BB600010E8127000E8223832344D08B85010ECC
:102BC6008127000E822383233DD081C2F6FF82C275
:102BD600F7FF83C2F8FF0900F5CF01F001502D0A77
:102BE600D1E081C2F6FF82C2F7FF83C2F8FF090077
:102BF600F5CF01F00150200ACCE081C2F6FF82C277
:102C0600F7FF83C2F8FF0900F5CF01F001502B0A48
:102C1600C7E081C2F6FF82C2F7FF83C2F8FF090050
:102C2600F5CF01F00150230AC2E081C2F6FF82C24D
:102C3600F7FF83C2F8FF0900F5CF01F00150300A13
:102C4600BDE001D09ED78BA301D08B918BA701D07D
:102C56008B9581C2F6FF82C2F7FF83C2F8FF090097
:102C6600F5CF00F0000E016E00C09FF24ADC005264
:102C760035E0896B8A6B89C200F08AC201F00A0EC0
:102C8600046E000E056EF9EC01F081C2F6FF82C2F9
:102C9600F7FF83C2F8FF0900F5CF02F002500024C7
:102CA600896F000E01208A6F300E895F000E8A5BE5
:102CB600010E8127000E8223832381C2F6FF82C282
:102CC600F7FF83C2F8FF0900F5CF00F0000E016E92
:102CD60000C09FF216DC0052CEE135D081C2F6FF6D
:102CE60082C2F7FF83C2F8FF0900F5CF01F0015059
:102CF6002A0A29E184C2E9FF85C2EAFFEECF00F085
:102D0600EECF01F000C0E9FF01C0EAFFEECF89F285
:102D1600EECF8AF284C2E9FF85C2EAFFEECF00F069
:102D2600EECF01F0020E0026000E012284C2E1FF62
:102D360085C2E2FF00C0E6FF01C0E6FF010E812763
:102D4600000E8223832381C2F6FF82C2F7FF83C26D
:102D5600F8FF0900F5CF01F001502E0A72E1010ECD
:102D66008127000E8223832381C2F6FF82C2F7FFEA
:102D760083C2F8FF0900F5CF01F001502A0A2AE1C3
:102D860084C2E9FF85C2EAFFEECF00F0EECF01F084
:102D960000C0E9FF01C0EAFFEECF86F2EECF87F270
:102DA60084C2E9FF85C2EAFFEECF00F0EECF01F064
:102DB600020E0026000E012284C2E1FF85C2E2FF58
:102DC60000C0E6FF01C0E6FF010E8127000E822348
:102DD600832336D0866B876B81C2F6FF82C2F7FFEC
:102DE60083C2F8FF0900F5CF00F0000E016E00C0A7
:102DF6009FF284EC12F0005223E086C200F087C2F4
:102E060001F00A0E046E000E056EF9EC01F081C2A7
:102E1600F6FF82C2F7FF83C2F8FF0900F5CF02F082
:102E260002500024866F000E0120876F300E865FE9
:102E3600000E875B010E8127000E82238323CCD7E9
:102E460003D0866B876B8C8981C200F082C201F049
:102E560083C202F0010E8127000E8223832300C065
:102E6600F6FF01C0F7FF02C0F8FF0900F5CF88F2B0
:102E760001D197C200F098C201F0CFEF25F08B89FF
:102E8600E3D78C8536D18B8B8C8133D18C8331D132
:102E96008B8D2FD12ED18B8B8B8F2BD184C2E9FFBB
:102EA60085C2EAFFEECF00F0EECF01F000C0E9FFE9
:102EB60001C0EAFFEECF00F0EECF01F000C093F2C2
:102EC60001C094F284C2E9FF85C2EAFFEECF00F0AA
:102ED600EECF01F0020E0026000E012284C2E1FFB1
:102EE60085C2E2FF00C0E6FF01C0E6FF000E9419AE
:102EF60002E1000E931904E1FA0E936F000E946F2F
:102F0600956B966B95519325E96E96519421EA6ED1
:102F1600EE520BE0010E9525006E000E9621016E15
:102F260000C095F201C096F2EDD7865187110AE0EE
:102F36009651875D02E19551865D04E286C295F25F
:102F460087C296F28A51965D02E18951955D05E246
:102F56009551895F96518A5B02D0896B8A6B8BB7D4
:102F660016D089C200F08AC201F0010E895F000EF8
:102F76008A5B005001100BE07FC2E1FF80C2E2FFD6
:102F8600200EE66E7F4B802B974B982BEAD795C287
:102F960002F096C203F0010E955D006E000E965982
:102FA600016E00C095F201C096F20250031019E0BE
:102FB60093C2E9FF94C2EAFF7FC2E1FF80C2E2FF4B
:102FC600EECFE6FF7F4B802B010E9325006E000EA1
:102FD6009421016E00C093F201C094F2974B982B96
:102FE600D6D78BA716D089C200F08AC201F0010E8F
:102FF600895F000E8A5B005001100BE07FC2E1FF83
:1030060080C2E2FF200EE66E7F4B802B974B982BFB
:10301600EAD78BD584C2E9FF85C2EAFFEECF00F07E
:10302600EECF01F000C0E9FF01C0EAFFEECF88F263
:1030360084C2E9FF85C2EAFFEECF00F0EECF01F0D1
:10304600020E0026000E012284C2E1FF85C2E2FFC5
:1030560000C0E6FF01C0E6FF880E936F020E946F74
:10306600010E956F000E966F60D7C00E8B13000E83
:103076008C133FD08851000AD8B4FBD688516C0A0D
:10308600D8B4FDD688514C0AD8B4F9D68851660A08
:10309600D8B4F7D68851450AD8B4F5D68851650A0A
:1030A600D8B4F2D68851670AD8B4F0D688516F0AD8
:1030B600D8B4EED68851640AD8B4ECD68851690AD9
:1030C600D8B4E8D68851700AD8B4E5D68851580ADB
:1030D600D8B4E1D68851780AD8B4DED68851730AB6
:1030E600D8B4DCD68851630A95E08851750ABDE0EC
:1030F600B3D7000E8B15006E8C51070B016E005076
:103106000110D8B456EF21F08CA904D0060E866FB4
:10311600000E876F84C2E9FF85C2EAFFEECF00F09A
:10312600EECF01F000C0E9FF01C0EAFFEECF8DF25D
:10313600EECF8EF2EECF8FF2EECF90F284C2E9FFA1
:1031460085C2EAFFEECF00F0EECF01F0040E0026B6
:10315600000E012284C2E1FF85C2E2FF00C0E6FF45
:1031660001C0E6FF046A056A066A076A8DC200F0B6
:103176008EC201F08FC202F090C203F091EC0BF008
:10318600010ED8B0000E006E005205E08F7F030ED0
:103196008B13000E8C13916B926B8DC200F08EC256
:1031A60001F08FC202F090C203F0046A056A066A53
:1031B600076A15EC0DF0000ED8A4010E006E005241
:1031C600D8B48AD090C200F0016A026A036AFF0E80
:1031D6000016000E01167E0E005E000E015A00C09B
:1031E60091F201C092F2010E005E000E015A00C07B
:1031F60091F201C092F2030E046E000E056EF9EC18
:1032060001F000C091F201C092F20A0E046E000EA7
:10321600056EA4EC12F000C091F201C092F2800E8D
:103226000118026E800E025C02E1000E005C05E2EF
:10323600010E0201915F000E925B0201915100089E
:103246009F6FC5EC08F08DC204F08EC205F08FC2E8
:1032560006F090C207F0F9EC07F000C093F201C047
:1032660094F202C095F203C096F2000E046E000EB0
:10327600056E000E066E7F0E076E93C200F094C2B6
:1032860001F095C202F096C203F091EC0BF0010E2C
:10329600D8B0000E006E005205E0010E915F000EE0
:1032A600925B1AD0000E046E000E056E200E066E9E
:1032B600820E076E93C200F094C201F095C202F02E
:1032C60096C203F091EC0BF0000ED8B0010E006E22
:1032D600005202E0914B922B800E006E800E9219E6
:1032E600005C02E19151000803E3010E886F02D0F1
:1032F60091C288F28CB118D08CA315D0800E921989
:10330600006E7F0E005C02E1FC0E915D0BE3800E09
:103316009219006E800E8719005C02E18651915D5C
:1033260001E201D001D0F1D38651871106E08CA3CA
:1033360004D0010E865F000E875B000E006E87517B
:10334600005C02E18651080803E2080E886F02D08D
:1033560086C288F28DC200F08EC201F08FC202F0E2
:1033660090C203F0046A056A066A076A15EC0DF056
:10337600000ED8A4010E006E0052D8B44BD191C2F3
:103386009FF2C5EC08F000C004F001C005F002C0D1
:1033960006F003C007F08DC200F08EC201F08FC2A6
:1033A60002F090C203F057EC0CF000C08DF201C0A1
:1033B6008EF202C08FF203C090F20201885100081B
:1033C6009F6FC5EC08F000C004F001C005F002C014
:1033D60006F003C007F08DC200F08EC201F08FC266
:1033E60002F090C203F057EC0CF000C099F201C055
:1033F6009AF202C09BF203C09CF299C28DF29AC265
:103406008EF29BC28FF29CC290F299C200F09AC2D1
:1034160001F09BC202F09CC203F067EC10F0ADEC29
:103426000DF000C004F001C005F002C006F003C0B4
:1034360007F099C200F09AC201F09BC202F09CC24A
:1034460003F0D2EC0DF0000E046E000E056E000EB9
:10345600066E7E0E076E91EC0BF0000ED8B0010ED4
:10346600006E00521AE08DC200F08EC201F08FC2CB
:1034760002F090C203F0000E046E000E056E000E00
:10348600066E7E0E076E97EC05F000C08DF201C049
:103496008EF202C08FF203C090F28DC200F08EC28F
:1034A60001F08FC202F090C203F067EC10F0020147
:1034B6008851010F096E0A6A000E0A2209C004F03B
:1034C6000AC005F0000E0ABEFF0E066E076E043631
:1034D6000490053606360736043604900536063659
:1034E60007369B0E0424F66E970E0520F76E000E27
:1034F6000620F86E0900F5CF05F00900F5CF06F0B5
:103506000900F5CF07F00900F5CF08F00850035C75
:1035160008E10750025C05E10650015C02E1055036
:10352600005C1EE302018DC200F08EC201F08FC264
:1035360002F090C203F0CD0E046ECC0E056E4C0E5A
:10354600066E7B0E076EF9EC07F000C08DF201C027
:103556008EF202C08FF203C090F2914B922B5AD09A
:103566008DC200F08EC201F08FC202F090C203F04D
:1035760067EC10F088C204F0000E056E066E076E4A
:1035860004360490053606360736043604900536AA
:10359600063607369B0E0424F66E970E0520F76E48
:1035A600000E0620F86E0900F5CF05F00900F5CFEC
:1035B60006F00900F5CF07F00900F5CF08F008502E
:1035C600035C08E10750025C05E10650015C02E17C
:1035D6000550005C1FE202018DC200F08EC201F0B0
:1035E6008FC202F090C203F0000E046E000E056E4C
:1035F600200E066E820E076EF9EC07F000C08DF203
:1036060001C08EF202C08FF203C090F2010E915FEC
:10361600000E925B02018CA393D08CB791D0800EE2
:10362600000A006E800E8719005C02E186510A08C6
:1036360004E20A0E866F000E876F8DC200F08EC2FE
:1036460001F08FC202F090C203F067EC10F000C0E8
:1036560093F201C094F202C095F203C096F2935120
:1036660094119511961142E00A0E046E000E056E35
:10367600066E076E93C200F094C201F095C202F086
:1036860096C203F0F1EC0EF008C000F009C001F09C
:103696000AC002F00BC003F0000E046E031808E126
:1036A6000450021805E10450011802E10050000A16
:1036B6001DE1010E865F000E875B0A0E046E000E8A
:1036C600056E066E076E93C200F094C201F095C2B5
:1036D60002F096C203F0F1EC0EF000C093F201C0C6
:1036E60094F202C095F203C096F2B9D7800E8719FC
:1036F600006E800E005C02E18851865D21E28651F3
:10370600885D9F6FC5EC08F000C004F001C005F0AD
:1037160002C006F003C007F08DC200F08EC201F0B1
:103726008FC202F090C203F057EC0CF000C08DF28D
:1037360001C08EF202C08FF203C090F286C288F2F8
:10374600050E02018625006E000E8721016E0050CF
:10375600895F01508A5B8651871103E18CB701D0DE
:1037660004D0010E895F000E8A5B030E8B15006E76
:103776008CC201F0000E01160050011004E0010E8B
:10378600895F000E8A5B8BA539D08BA312D08BA1E3
:1037960003D02D0E006E02D02B0E006E7FC2E1FF0D
:1037A60080C2E2FF00C0E6FF7F4B802B974B982B31
:1037B6000CD08BA10AD07FC2E1FF80C2E2FF200EAF
:1037C600E66E7F4B802B974B982B800E006E800EFB
:1037D6008A19005C02E1895100080FE27FC2E1FF0D
:1037E60080C2E2FF300EE66E7F4B802B974B982B04
:1037F600010E895F000E8A5BE8D73AD08BB718D0E6
:10380600800E006E800E8A19005C02E18951000864
:103816000FE27FC2E1FF80C2E2FF200EE66E7F4B21
:10382600802B974B982B010E895F000E8A5BE8D799
:103836008BA312D08BA103D02D0E006E02D02B0EBF
:10384600006E7FC2E1FF80C2E2FF00C0E6FF7F4B51
:10385600802B974B982B0CD08BA10AD07FC2E1FF0F
:1038660080C2E2FF200EE66E7F4B802B974B982B93
:103876008DC200F08EC201F08FC202F090C203F03A
:1038860067EC10F000C093F201C094F202C095F20A
:1038960003C096F288C200F0000E016E026E036E3F
:1038A60000360090013602360336003600900136A7
:1038B600023603369B0E0024F66E970E0120F76E35
:1038C600000E0220F86E0900F5CF04F00900F5CFCE
:1038D60005F00900F5CF06F00900F5CF07F093C211
:1038E60000F094C201F095C202F096C203F0F1EC2A
:1038F6000EF0300E00267FC2E1FF80C2E2FF00C05C
:10390600E6FF7F4B802B974B982B8651871103E15F
:103916008CB701D06FD07FC2E1FF80C2E2FF2E0ECE
:10392600E66E7F4B802B974B982B8851865F000E57
:10393600875B88534DE0880788C200F0000E016E51
:10394600026E036E003600900136023603360036EC
:1039560000900136023603369B0E0024F66E970E53
:103966000120F76E000E0220F86E0900F5CF04F074
:103976000900F5CF05F00900F5CF06F00900F5CFEF
:1039860007F093C200F094C201F095C202F096C20D
:1039960003F0F1EC0EF00A0E046E000E056E066ED4
:1039A600076EF1EC0EF008C000F009C001F00AC085
:1039B60002F00BC003F0300E00267FC2E1FF80C28A
:1039C600E2FF00C0E6FF7F4B802B974B982BB1D7C9
:1039D600865187110FE07FC2E1FF80C2E2FF300E01
:1039E600E66E7F4B802B974B982B010E865F000E61
:1039F600875BEED78BAB0BD07FC2E1FF80C2E2FFC5
:103A0600450EE66E7F4B802B974B982B0AD07FC2D4
:103A1600E1FF80C2E2FF650EE66E7F4B802B974B7F
:103A2600982B800E9219006E800E005C02E1000E4B
:103A3600915D11E291510008916F9251000E9257DB
:103A46007FC2E1FF80C2E2FF2D0EE66E7F4B802B28
:103A5600974B982B0AD07FC2E1FF80C2E2FF2B0E64
:103A6600E66E7F4B802B974B982B0A0E046E000E4A
:103A7600056E91C200F092C201F0A4EC12F0300E75
:103A860000267FC2E1FF80C2E2FF00C0E6FF02011E
:103A96007F4B802B974B982B0A0E046E000E056EFB
:103AA60091C200F092C201F0A4EC12F008C000F03E
:103AB60009C001F0300E00267FC2E1FF80C2E2FF9E
:103AC60000C0E6FF02017F4B802B974B982B8BA7FC
:103AD6001AD0800E006E800E8A19005C02E18951B0
:103AE600000811E27FC2E1FF80C2E2FF200EE66E0F
:103AF6007F4B802B974B982B010E895F000E8A5BBC
:103B060089518A11EFE198EF15F08CA3F3D0800E5E
:103B16009219006E800E005C02E1000E915D0AE2D1
:103B2600010E915D006E000E9259016E0050865F87
:103B36000150875B8DC200F08EC201F08FC202F089
:103B460090C203F067EC10F000C093F201C094F24B
:103B560002C095F203C096F2010E886F88510A0AD8
:103B660034E088C200F0000E016E026E036E00366D
:103B760000900136023603360036009001360236D2
:103B860003369B0E0024F66E970E0120F76E000E8C
:103B96000220F86E0900F5CF01F00900F5CF02F01A
:103BA6000900F5CF03F00900F5CF04F00450965D47
:103BB60008E10350955D05E10250945D02E1015074
:103BC600935D01E202D0882BC9D78851865D9D6F2F
:103BD600000E87599E6F9DC286F29EC287F293C2DF
:103BE60000F094C201F095C202F096C203F0ADEC6B
:103BF6000DF000C004F001C005F002C006F003C0DD
:103C060007F08DC200F08EC201F08FC202F090C2A2
:103C160003F0D2EC0DF000C099F201C09AF202C096
:103C26009BF203C09CF29DC29FF2C5EC08F099C2BC
:103C360004F09AC205F09BC206F09CC207F0F9ECAC
:103C460007F0000E046E000E056E000E066E7E0E68
:103C5600076E97EC05F067EC10F000C093F201C018
:103C660094F202C095F203C096F28651871142E0A3
:103C76000A0E046E000E056E066E076E93C200F005
:103C860094C201F095C202F096C203F0F1EC0EF078
:103C960008C000F009C001F00AC002F00BC003F032
:103CA600000E046E031808E10450021805E10450E2
:103CB600011802E10050000A1DE10A0E046E000E12
:103CC600056E066E076E93C200F094C201F095C2AF
:103CD60002F096C203F0F1EC0EF000C093F201C0C0
:103CE60094F202C095F203C096F2010E865F000EB2
:103CF600875BBBD7800E006E800E8719005C02E1E1
:103D060086510C0816E386C29FF203EC11F08DC2B1
:103D160004F08EC205F08FC206F090C207F097EC51
:103D260005F000C08DF201C08EF202C08FF203C012
:103D360090F28DC200F08EC201F08FC202F090C2E6
:103D460003F0046A056A066A076A15EC0DF0000EB0
:103D5600D8A4010E006E0052D8B477D08DC200F000
:103D66008EC201F08FC202F090C203F067EC10F031
:103D7600000E046E031808E10450021805E1045011
:103D8600011802E10050000A60E1800E006E800E0C
:103D96009219005C02E19151010857E291C29FF22B
:103DA600C5EC08F000C004F001C005F002C006F042
:103DB60003C007F08DC200F08EC201F08FC202F080
:103DC60090C203F057EC0CF05F0E046E700E056E99
:103DD600090E066E810E076E91EC0BF0010ED8B03F
:103DE600000E006E005206E0090E0201915F000E01
:103DF600925B05D00201080E915F000E925B91C2A4
:103E06009FF2C5EC08F000C004F001C005F002C046
:103E160006F003C007F08DC200F08EC201F08FC21B
:103E260002F090C203F057EC0CF067EC10F000C003
:103E360093F201C094F202C095F203C096F2020119
:103E46008D6B8E6B8F6B906B38D08DC200F08EC2EF
:103E560001F08FC202F090C203F067EC10F000C0D0
:103E660093F201C094F202C095F203C096F293C297
:103E760000F094C201F095C202F096C203F0ADECD8
:103E86000DF000C004F001C005F002C006F003C04A
:103E960007F08DC200F08EC201F08FC202F090C210
:103EA60003F0D2EC0DF000C08DF201C08EF202C01C
:103EB6008FF203C090F2916B926B010E886F88515E
:103EC6000A0A34E088C200F0000E016E026E036E2C
:103ED6000036009001360236033600360090013671
:103EE600023603369B0E0024F66E970E0120F76EFF
:103EF600000E0220F86E0900F5CF01F00900F5CF9B
:103F060002F00900F5CF03F00900F5CF04F00450E4
:103F1600965D08E10350955D05E10250945D02E16E
:103F26000150935D01E202D0882BC9D788518625BE
:103F3600006E000E8721016E9151002692510122DA
:103F46000050895F01508A5B8CB704D08651871177
:103F560001E104D0010E895F000E8A5B030E8B150A
:103F6600006E8CC201F0000E01160050011004E034
:103F7600010E895F000E8A5B8BA539D08BA312D008
:103F86008BA103D02D0E006E02D02B0E006E7FC2C9
:103F9600E1FF80C2E2FF00C0E6FF7F4B802B974B1C
:103FA600982B0CD08BA10AD07FC2E1FF80C2E2FF22
:103FB600200EE66E7F4B802B974B982B800E006E63
:103FC600800E8A19005C02E1895100080FE27FC267
:103FD600E1FF80C2E2FF300EE66E7F4B802B974BEF
:103FE600982B010E895F000E8A5BE8D73AD08BB713
:103FF60018D0800E006E800E8A19005C02E189518D
:1040060000080FE27FC2E1FF80C2E2FF200EE66EEB
:104016007F4B802B974B982B010E895F000E8A5B96
:10402600E8D78BA312D08BA103D02D0E006E02D041
:104036002B0E006E7FC2E1FF80C2E2FF00C0E6FFEA
:104046007F4B802B974B982B0CD08BA10AD07FC22D
:10405600E1FF80C2E2FF200EE66E7F4B802B974B7E
:10406600982B88C200F0880700524CE088C200F006
:10407600000E016E026E036E0036009001360236A7
:104086000336003600900136023603369B0E0024B6
:10409600F66E970E0120F76E000E0220F86E0900EC
:1040A600F5CF04F00900F5CF05F00900F5CF06F0CD
:1040B6000900F5CF07F093C200F094C201F095C253
:1040C60002F096C203F0F1EC0EF00A0E046E000E3A
:1040D600056E066E076EF1EC0EF008C000F009C022
:1040E60001F00AC002F00BC003F0300E00267FC2BA
:1040F600E1FF80C2E2FF00C0E6FF7F4B802B974BBB
:10410600982BAFD7800E006E800E9219005C02E1EC
:10411600915100080FE27FC2E1FF80C2E2FF300E3C
:10412600E66E7F4B802B974B982B010E915F000E0E
:10413600925BE8D7800E000A006E800E8719005C3D
:1041460002E18651080803E2080E886F02D086C293
:1041560088F28851865F000E875B885303E18CB72F
:1041660001D00AD07FC2E1FF80C2E2FF2E0EE66ECA
:104176007F4B802B974B982B88C29FF2C5EC08F09B
:104186008DC204F08EC205F08FC206F090C207F011
:10419600F9EC07F058EC0EF000C093F201C094F26F
:1041A60002C095F203C096F288534DE0880788C294
:1041B60000F0000E016E026E036E003600900136AE
:1041C60002360336003600900136023603369B0E61
:1041D6000024F66E970E0120F76E000E0220F86E90
:1041E6000900F5CF04F00900F5CF05F00900F5CF79
:1041F60006F00900F5CF07F093C200F094C201F073
:1042060095C202F096C203F0F1EC0EF00A0E046EAF
:10421600000E056E066E076EF1EC0EF008C000F09B
:1042260009C001F00AC002F00BC003F0300E0026F0
:104236007FC2E1FF80C2E2FF00C0E6FF7F4B802B1A
:10424600974B982BB1D7865187110FE07FC2E1FFBC
:1042560080C2E2FF300EE66E7F4B802B974B982B89
:10426600010E865F000E875BEED78BA71AD0800EF5
:10427600006E800E8A19005C02E18951000811E285
:104286007FC2E1FF80C2E2FF200EE66E7F4B802BED
:10429600974B982B010E895F000E8A5B89518A1114
:1042A600EFE198EF15F0C00E8B15016E8CC202F08F
:1042B600000E0216000E021802E1000E0118D8A424
:1042C6008CD08BA931D084C2E9FF85C2EAFFEECF3C
:1042D60000F0EECF01F000C0E9FF01C0EAFFEECF2B
:1042E60000F0EECF01F0EECF02F0EECF03F000C00B
:1042F60093F201C094F202C095F203C096F284C212
:10430600E9FF85C2EAFFEECF00F0EECF01F0040E22
:104316000026000E012284C2E1FF85C2E2FF00C032
:10432600E6FF01C0E6FF31D084C2E9FF85C2EAFF9D
:10433600EECF00F0EECF01F000C0E9FF01C0EAFFCA
:10434600EECF00F0EECF01F0000E01BEFF0E026EC2
:10435600036E00C093F201C094F202C095F203C04E
:1043660096F284C2E9FF85C2EAFFEECF00F0EECFF7
:1043760001F0020E0026000E012284C2E1FF85C272
:10438600E2FF00C0E6FF01C0E6FF800E9619006E50
:10439600800E005C08E1000E955D05E1000E945D5F
:1043A60002E1000E935D18E2030E8B13000E8C13D0
:1043B600006A016A026A036A9351005E9451015AC7
:1043C6009551025A9651035A00C093F201C094F2D5
:1043D60002C095F203C096F25ED08BA931D084C29A
:1043E600E9FF85C2EAFFEECF00F0EECF01F000C094
:1043F600E9FF01C0EAFFEECF00F0EECF01F0EECF0D
:1044060002F0EECF03F000C093F201C094F202C0B6
:1044160095F203C096F284C2E9FF85C2EAFFEECFA9
:1044260000F0EECF01F0040E0026000E012284C239
:10443600E1FF85C2E2FF00C0E6FF01C0E6FF2BD028
:1044460084C2E9FF85C2EAFFEECF00F0EECF01F0AD
:1044560000C0E9FF01C0EAFFEECF00F0EECF01F0A9
:1044660000C093F201C094F2000E956F966F84C25D
:10447600E9FF85C2EAFFEECF00F0EECF01F0020EB3
:104486000026000E012284C2E1FF85C2E2FF00C0C1
:10449600E6FF01C0E6FF000E871902E1000E86194D
:1044A6000FE1000E006E961908E10050951905E11E
:1044B6000050941902E19351000A02E1864B872BC2
:1044C600C00E8B15006E00C005F0AED0010E886FD1
:1044D60088510A0A34E088C200F0000E016E026EAE
:1044E600036E003600900136023603360036009021
:1044F6000136023603369B0E0024F66E970E012017
:10450600F76E000E0220F86E0900F5CF01F00900E3
:10451600F5CF02F00900F5CF03F00900F5CF04F05E
:104526000450965D08E10350955D05E10250945DE7
:1045360002E10150935D01E202D0882BC9D782D0F7
:10454600010E886F8851080A34E088C200F0000E18
:10455600016E026E036E0036009001360236033697
:1045660000360090013602360336C30E0024F66E7E
:10457600970E0120F76E000E0220F86E0900F5CFA7
:1045860001F00900F5CF02F00900F5CF03F00900AC
:10459600F5CF04F00450965D08E10350955D05E102
:1045A6000250945D02E10150935D01E202D0882B36
:1045B600C9D748D0010E886F88510C0A34E088C2EA
:1045C60000F0000E016E026E036E0036009001369A
:1045D60002360336003600900136023603366B0E7D
:1045E6000024F66E970E0120F76E000E0220F86E7C
:1045F6000900F5CF01F00900F5CF02F00900F5CF6B
:1046060003F00900F5CF04F00450965D08E103506D
:10461600955D05E10250945D02E10150935D01E272
:1046260002D0882BC9D70ED00550000AD8B44ED771
:104636000550C00AD8B44AD70550800A81E0055013
:10464600400AB8E0800E006E800E8719005C02E119
:104656008651885D03E286C288F20DD0800E8719E6
:10466600006E800E005C02E18851865D04E288C21D
:1046760086F2000E876F89518A110EE0030E8B15A4
:10468600006E8CC201F0000E01160050011004E00D
:10469600010E895F000E8A5B800E8719006E800E00
:1046A6008A19005C02E18951865D05E28651895FBF
:1046B60087518A5B02D0896B8A6BC40E8B15016E9B
:1046C6008C51080B026E0250080A02E1400E0118D6
:1046D60008E189518A1104E0010E895F000E8A5BA8
:1046E6001CD0C00E8B15016E8C51080B026E025049
:1046F600080A02E1800E011810E1800E006E800E9D
:104706008A19005C02E18951020805E2020E895FFE
:10471600000E8A5B02D0896B8A6B8BA55DD08BA35A
:1047260012D08BA103D02D0E006E02D02B0E006E80
:104736007FC2E1FF80C2E2FF00C0E6FF7F4B802B15
:10474600974B982B34D08BA10BD07FC2E1FF80C250
:10475600E2FF200EE66E7F4B802B974B982B27D0DF
:10476600C00E8B15016E8C51080B026E0250080AA2
:1047760002E1800E01181BE17FC2E1FF80C2E2FF69
:10478600300EE66E7F4B802B974B982B8BAB03D06E
:10479600580E006E02D0780E006E7FC2E1FF80C216
:1047A600E2FF00C0E6FF7F4B802B974B982B895189
:1047B6008A1111E07FC2E1FF80C2E2FF300EE66E91
:1047C6007F4B802B974B982B010E895F000E8A5BDF
:1047D60089518A11EFE174D089518A1113E08BB7A0
:1047E60011D07FC2E1FF80C2E2FF200EE66E7F4B52
:1047F600802B974B982B010E895F000E8A5B89519F
:104806008A11EFE18BA312D08BA103D02D0E006E7F
:1048160002D02B0E006E7FC2E1FF80C2E2FF00C015
:10482600E6FF7F4B802B974B982B0CD08BA10AD0A1
:104836007FC2E1FF80C2E2FF200EE66E7F4B802B37
:10484600974B982BC00E8B15016E8C51080B026E80
:104856000250080A02E1400E01180BE17FC2E1FF97
:1048660080C2E2FF300EE66E7F4B802B974B982B73
:1048760027D0C00E8B15016E8C51080B026E0250AC
:10488600080A02E1800E01181BE17FC2E1FF80C227
:10489600E2FF300EE66E7F4B802B974B982B8BAB4F
:1048A60003D0580E006E02D0780E006E7FC2E1FF74
:1048B60080C2E2FF00C0E6FF7F4B802B974B982B10
:1048C600800E006E800E8719005C02E18651885DBD
:1048D6000BE27FC2E1FF80C2E2FF300EE66E7F4B45
:1048E600802B974B982BECD786C200F087C201F03D
:1048F600010E865F000E875B00500110D8B42AD1E6
:10490600C00E8B15006E00C099F20AD186C200F067
:1049160087C201F0000E87BFFF0E026E036E0036DF
:104926000090013602360336003600900136023614
:1049360003369B0E0024F66E970E0120F76E000ECE
:104946000220F86E0900F5CF04F00900F5CF05F056
:104956000900F5CF06F00900F5CF07F093C200F085
:1049660094C201F095C202F096C203F0F1EC0EF08B
:104976000A0E046E000E056E066E076EF1EC0EF062
:1049860008C000F009C001F00AC002F00BC003F035
:10499600300E0024886FD3D08BAB45D086C200F092
:1049A60087C201F0000E87BFFF0E026E036E00364F
:1049B6000090013602360336003600900136023684
:1049C6000336C30E0024F66E970E0120F76E000E16
:1049D6000220F86E0900F5CF04F00900F5CF05F0C6
:1049E6000900F5CF06F00900F5CF07F093C200F0F5
:1049F60094C201F095C202F096C203F0F1EC0EF0FB
:104A06000F0E0016000E011602160316E30E002402
:104A1600F66E970E0120F76E000E0220F86E090062
:104A2600F5CF88F244D086C200F087C201F0000EAE
:104A360087BFFF0E026E036E003600900136023607
:104A4600033600360090013602360336C30E0024C4
:104A5600F66E970E0120F76E000E0220F86E090022
:104A6600F5CF04F00900F5CF05F00900F5CF06F003
:104A76000900F5CF07F093C200F094C201F095C289
:104A860002F096C203F0F1EC0EF00F0E0016000EC7
:104A9600011602160316F40E0024F66E970E012078
:104AA600F76E000E0220F86E0900F5CF88F247D0A7
:104AB60086C200F087C201F0000E87BFFF0E026EAD
:104AC600036E00360090013602360336003600903B
:104AD6000136023603366B0E0024F66E970E012061
:104AE600F76E000E0220F86E0900F5CF04F00900FB
:104AF600F5CF05F00900F5CF06F00900F5CF07F070
:104B060093C200F094C201F095C202F096C203F07F
:104B1600F1EC0EF0070E0014886F300E88270FD0C8
:104B26009951000AD8B4F2D69951C00AD8B4EED633
:104B36009951800AD8B430D79951400AB9E07FC25A
:104B4600E1FF80C2E2FF88C2E6FF7F4B802B974BD6
:104B5600982BCAD68BA71AD0800E006E800E8A19A3
:104B6600005C02E18951000811E27FC2E1FF80C2C8
:104B7600E2FF200EE66E7F4B802B974B982B010EA3
:104B8600895F000E8A5B89518A11EFE198EF15F073
:0A4B960097C200F098C201F012006F
:104BA0007FC2BEF281C2BFF280C2C0F283C2C1F234
:104BB000E8EC00F07FC2BEF281C2BFF282C2C0F256
:104BC00083C2C1F2E8EC00F080C29FF282C2A0F280
:104BD0007FC2A1F283C2A2F24EEC0DF080C29FF21E
:104BE00082C2A0F281C2A1F283C2A2F24EEC0DF009
:024BF0001200B1
:104BF200840E0201A56F0F0EA66FA76B010EA86FA0
:104C02007FC2A9F2F9EC04F00050FF0A0AE10101A7
:104C1200836B80B803D08088006A04D0FF0E006ED8
:064C220001D0006A12003F
:104C280002019F6B91EC0DF00050FF0A25E1010194
:104C3800AB51000A21E102019F6B91EC0DF000508D
:104C4800FF0A01E1F8D7460E0201BE6F650EBF6F7D
:104C5800280EC06FC16BE8EC00F0460EBE6F4B0E1D
:104C6800BF6F280EC06F010EC16FE8EC00F00101A4
:104C7800AC6B010EAB6F85D002019F6B91EC0DF010
:104C88000050FF0A26E10101AB51010A22E10201AD
:104C98009F6B91EC0DF00050FF0A01E1F8D7460E2A
:104CA8000201BE6F650EBF6F280EC06FC16BE8ECC6
:104CB80000F04E0EBE6F530EBF6F280EC06F010E70
:104CC800C16FE8EC00F0010E0101AC6F020EAB6F92
:104CD80058D002019F6B91EC0DF00050FF0A26E1BD
:104CE8000101AB51020A22E102019F6B91EC0DF028
:104CF8000050FF0A01E1F8D7460E0201BE6F650EAB
:104D0800BF6F280EC06FC16BE8EC00F0560EBE6F87
:104D18005B0EBF6F280EC06F010EC16FE8EC00F08C
:104D2800020E0101AC6F030EAB6F2BD002019F6B1B
:104D380091EC0DF00050FF0A24E10101AB51030A88
:104D480020E102019F6B91EC0DF00050FF0A01E198
:104D5800F8D7460E0201BE6F650EBF6F280EC06FF2
:104D6800C16BE8EC00F05E0EBE6F630EBF6F280EDD
:104D7800C06F010EC16FE8EC00F0030E0101AC6FCB
:044D8800AB6B1200FF
:104D8C0002019F6BF8EC0BF00050FF0AD8A48FD0F7
:104D9C004F0E016E020E026E0101AC510126D8B00D
:104DAC00022A01C0E9FF02C0EAFFEE50010F006EBB
:104DBC0001C0E1FF02C0E2FF00C0E6FF4F0EE96E4A
:104DCC00020EEA6EAC51E926D8B0EA2AEE50090878
:104DDC0009E24F0EE16E020EE26EAC51E126D8B044
:104DEC00E22AE66A02017F51460A29E18051060A4D
:104DFC0026E14F0EE96E020EEA6E0101AC51E92676
:104E0C00D8B0EA2AEE50060809E24F0EE16E020E07
:104E1C00E26EAC51E126D8B0E22AE66A4F0EE96E9A
:104E2C00020EEA6EAC51E926D8B0EA2AEE50060A18
:104E3C0006E102015051040802E2040E506F020117
:104E4C004F51060A1BE17F514E0A18E18051060AA8
:104E5C0015E14F0EE96E020EEA6E0101AC51E92626
:104E6C00D8B0EA2AEE50040809E24F0EE16E020EA9
:104E7C00E26EAC51E126D8B0E22AE66A01014F0E8F
:104E8C00E96E020EEA6EAC51E926D8B0EA2A300E71
:104E9C00EE24006E00C05EF200C0A5F27FC2A6F246
:104EAC0080C2A7F2010E0201A86F37EC04F01200C9
:104EBC00949894968B988B9694889486C79EC79C4E
:064ECC00380EC66E120054
:104ED200020129512803F3CF73F2F4CF74F2000ECA
:104EE20074BFFF0E756F766F734B742B000E74BF19
:104EF200FF0E756F766F2D51725D006E016A000EA6
:104F0200015A000E01BEFF0E026E036E73C204F060
:104F120074C205F075C206F076C207F0D0EC01F05B
:104F220000C073F201C074F202C075F203C076F2DF
:104F32002A510024F66E2B510120F76E2C510220CB
:0A4F4200F86E0900F5CF00F0120030
:104F4C002CEC0DF0D00E02019F6F80EC0DF072C2B4
:104F5C009FF280EC0DF04DEC15F0D10E02019F6F1D
:104F6C0080EC0DF002017F6B37EC15F000C073F292
:0A4F7C0090EC12F073C200F0120076
:0C4F86003A0E0D6E0D2EFED7000012003A
:104F9200770E02017D6F020E7E6F72C27FF273C2C4
:104FA20080F274C281F275C282F276C283F27D0E01
:104FB200846F020E856F93EC15F000C07BF201C086
:104FC2007CF200507225E16E01507321E26EE66AB6
:0A4FD2007BC200F07CC201F0120067
:104FDC00580E02019F6F000EA06F030EA16F72C2DC
:0C4FEC00A2F2010EA36F24EC0CF01200E6
:104FF80012EC0EF01C0EA56F0E0EA66F6C0EA76FAE
:10500800180EA86F010EA96F8CEC08F0CC0E9F6FDC
:10501800010EA06F1E0EA16F020EA26F020EA36FEB
:1050280024EC0CF0640E9F6F000EA06F050EA16FAC
:10503800040EA26F010EA36F24EC0CF05B0E9F6FA1
:10504800000EA06F050EA16F060EA26F010EA36FD2
:1050580024EC0CF00A0E7F6F000E806F89EC15F0BF
:1050680000C030F2680E0C6EE40E0D6E0D2EFED7E9
:105078000C2EFCD700000B0E7F6F000E806F89ECA2
:1050880015F000C031F2680E0C6EE40E0D6E0D2E98
:10509800FED70C2EFCD700000C0E7F6F000E806F21
:1050A80089EC15F000C02EF2680E0C6EE40E0D6E41
:1050B8000D2EFED70C2EFCD700000D0E7F6F000EB4
:1050C800806F89EC15F000C02FF2680E0C6EE40EAC
:1050D8000D6E0D2EFED70C2EFCD70000100E046EA0
:1050E800270E056E2EC200F02FC201F06EEC15F0EF
:1050F8000A0E046E000E056E6EEC15F008C000F086
:1051080009C001F000C04FF2E80E046E030E056EF0
:105118002EC200F02FC201F06EEC15F00A0E046EDC
:10512800000E056E6EEC15F008C000F009C001F025
:1051380000C050F2640E046E000E056E2EC200F020
:105148002FC201F06EEC15F00A0E046E000E056E0B
:105158006EEC15F008C000F009C001F000C051F273
:105168000A0E046E000E056E2EC200F02FC201F06A
:105178006EEC15F00A0E046E000E056E6EEC15F05E
:1051880008C000F009C001F000C052F20A0E046E17
:10519800000E056E2EC200F02FC201F06EEC15F065
:1051A80008C000F009C001F000C053F2300E4F25CE
:1051B800A56F460EA66F060EA76F010EA86F37ECF7
:1051C80004F0300E5025A56F4E0EA66F060EA76F81
:1051D800010EA86F37EC04F0300E5125A56F560E5E
:1051E800A66F060EA76F010EA86F37EC04F0300EFD
:1051F8005225A56F5E0EA66F060EA76F010EA86F4B
:1052080037EC04F0300E5325A56F660EA66F060E18
:10521800A76F010EA86F37EC04F0430E7F6F2D0EB9
:10522800806F6E0E816F3A0E826F010E836FB4DC51
:10523800E80E046E030E056E30C200F031C201F0B4
:105248006EEC15F00A0E046E000E056E6EEC15F08D
:1052580008C000F009C001F000C04FF2640E046EEF
:10526800000E056E30C200F031C201F06EEC15F090
:105278000A0E046E000E056E6EEC15F008C000F004
:1052880009C001F000C050F20A0E046E000E056E4F
:1052980030C200F031C201F06EEC15F00A0E046E57
:1052A800000E056E6EEC15F008C000F009C001F0A4
:1052B80000C051F20A0E046E000E056E30C200F0F6
:1052C80031C201F06EEC15F008C000F009C001F021
:1052D80000C052F2300E4F25A56F460EA66F040E81
:1052E800A76F010EA86F37EC04F0300E5025A56F9C
:1052F8004E0EA66F040EA76F010EA86F37EC04F0D0
:10530800300E5125A56F560EA66F040EA76F010E1D
:10531800A86F37EC04F0300E5225A56F5E0EA66F0D
:10532800040EA76F010EA86F37EC04F0430E7F6FD1
:105338001D0E806F660E816F2A0E826F010E836FBD
:105348002BDC010E0101AB6FAC6B460E0201BE6F88
:105358004B0EBF6F280EC06F010EC16FE8EC00F056
:105368000101AC51000A07E1460E02017F6F040EED
:10537800806F08DD20D00101AC51010A07E14E0E13
:1053880002017F6F040E806FFDDC15D00101AC5166
:10539800020A07E1560E02017F6F040E806FF2DCED
:1053A8000AD00101AC51030A06E15E0E02017F6FCB
:1053B800040E806FE7DC34DC02017F6B16DC0050E2
:1053C800FF0A66E102017F6B10DC0050FF0A01E171
:1053D800F9D74FC200F0000E016EE80E046E030EFE
:1053E800056EF9EC01F000C043F201C044F2640E0E
:1053F80002015003F3CF4DF2F4CF4EF20A0E5103DF
:10540800F3CF02F0F4CF03F002C04BF203C04CF22A
:1054180052C200F0000E016E00C045F201C046F213
:105428004D514325306F4E514421316F0250302782
:105438000350312300503027015031230A0E7F6F6B
:10544800000E806F30C281F252EC15F0050E0B6E23
:105458000F0E0C6EF10E0D6E0D2EFED70C2EFCD716
:105468000B2EFAD70B0E02017F6F000E806F31C230
:1054780081F252EC15F0050E0B6E0F0E0C6EF10E4C
:105488000D6E0D2EFED70C2EFCD70B2EFAD701D0A1
:1054980067D7460E0201BE6F650EBF6F280EC06F3C
:1054A800C16BE8EC00F0010E0101AB6FAC6B460E6E
:1054B8000201BE6F4B0EBF6F380EC06F010EC16F79
:1054C800E8EC00F0100E046E270E056E2EC200F0F8
:1054D8002FC201F06EEC15F00A0E046E000E056E78
:1054E8006EEC15F008C000F009C001F000C04FF2E2
:1054F800E80E046E030E056E2EC200F02FC201F0F6
:105508006EEC15F00A0E046E000E056E6EEC15F0CA
:1055180008C000F009C001F000C050F2640E046E2B
:10552800000E056E2EC200F02FC201F06EEC15F0D1
:105538000A0E046E000E056E6EEC15F008C000F041
:1055480009C001F000C051F20A0E046E000E056E8B
:105558002EC200F02FC201F06EEC15F00A0E046E98
:10556800000E056E6EEC15F008C000F009C001F0E1
:1055780000C052F20A0E046E000E056E2EC200F034
:105588002FC201F06EEC15F008C000F009C001F060
:1055980000C053F2300E4F25A56F460EA66F060EBB
:1055A800A76F010EA86F37EC04F0300E5025A56FD9
:1055B8004E0EA66F060EA76F010EA86F37EC04F00B
:1055C800300E5125A56F560EA66F060EA76F010E59
:1055D800A86F37EC04F0300E5225A56F5E0EA66F4B
:1055E800060EA76F010EA86F37EC04F0300E532596
:1055F800A56F660EA66F060EA76F010EA86F37EC93
:1056080004F00101AC51000A08E1460E02017F6F67
:10561800060E806FC6EC26F02FD00101AC51010AAE
:1056280008E14E0E02017F6F060E806FC6EC26F071
:1056380023D00101AC51020A08E1560E02017F6F26
:10564800060E806FC6EC26F017D00101AC51030A94
:1056580008E15E0E02017F6F060E806FC6EC26F031
:105668000BD00101AC51040A07E1660E02017F6FFD
:10567800060E806FC6EC26F085EC13F002017F6BF6
:10568800F9EC25F00050FF0A3EE164EC14F04D51AE
:1056980043252E6F4E5144212F6F4B512E274C51CD
:1056A8002F2345512E2746512F2347512E27485146
:1056B8002F230C0E7F6F000E806F2EC281F252ECEA
:1056C80015F0050E0B6E0F0E0C6EF10E0D6E0D2EF5
:1056D800FED70C2EFCD70B2EFAD70D0E02017F6FCA
:1056E800000E806F2FC281F252EC15F0050E0B6E82
:1056F8000F0E0C6EF10E0D6E0D2EFED70C2EFCD774
:105708000B2EFAD701D07DD719EC13F002017F6B6D
:10571800F9EC25F00050FF0A01E1F8D746EC13F048
:0257280012006D
:10572A0072C204F073C205F004C002F005C003F0AF
:10573A00044A052A74C200F075C201F00201744BD2
:10574A00752B00C0E9FF01C0EAFF02C0E1FF03C0F8
:10575A00E2FFEECFE6FF02C0E9FF03C0EAFFEE5226
:0E576A0001E0E2D772C200F073C201F012003B
:1057780002019F6BF8EC0BF00050FF0A11E10201E7
:105788009F6BF8EC0BF00050FF0A01E1F8D701011C
:10579800C52BC5510201721903E1010E0101C56F44
:0257A8001200ED
:1057AA0012EC0EF0170EA56F0E0EA66F7A0EA76FEB
:1057BA00180EA86F010EA96F8CEC08F02B0E9F6FC4
:1057CA00010EA06F190EA16F020EA26F020EA36F37
:1057DA0024EC0CF0220E9F6F010EA06F050EA16F34
:1057EA00040EA26F010EA36F24EC0CF00C0E9F6F37
:1057FA00010EA06F010EA16F060EA26F010EA36F1C
:10580A0024EC0CF0100E7F6F000E806F89EC15F0FF
:10581A0000C010F2000E116F640E046E000E056EC9
:10582A0010C200F011C201F0A4EC12F00A0E046ECC
:10583A00000E056EA4EC12F008C000F009C001F0D9
:10584A0000C04FF20A0E046E000E056E10C200F080
:10585A0011C201F0A4EC12F00A0E046E000E056EDD
:10586A00A4EC12F008C000F009C001F000C051F227
:10587A000A0E046E000E056E10C200F011C201F08D
:10588A00A4EC12F008C000F009C001F000C052F206
:10589A00300E02014F25A56F460EA66F040EA76FA4
:1058AA00010EA86F37EC04F02E0EA56F4E0EA66FF0
:1058BA00040EA76F010EA86F37EC04F0300E5125C5
:1058CA00A56F560EA66F040EA76F010EA86F37ECD0
:1058DA0004F0300E5225A56F5E0EA66F040EA76F58
:1058EA00010EA86F37EC04F0440E7F6F1E0E806F16
:1058FA00650E816F2A0E826F010E836FD0EC25F040
:10590A00010E0101AB6FAC6B460E0201BE6F4A0E6F
:10591A00BF6F280EC06F010EC16FE8EC00F00101E5
:10592A00AC51000A08E1460E02017F6F040E806F37
:10593A00C6EC26F017D00101AC51020A08E1560E56
:10594A0002017F6F040E806FC6EC26F00BD00101B6
:10595A00AC51030A07E15E0E02017F6F040E806FED
:10596A00C6EC26F092EC14F002017F6BF9EC25F0FC
:10597A000050FF0A5FE1640E02014F03F3CF10F2F9
:10598A00F4CF11F20A0E5103F3CF00F0F4CF01F075
:10599A0000501025026E01501121036E02C010F250
:1059AA0003C011F252C200F0000E016E025000262E
:1059BA000350012200C010F201C011F216EC15F0DA
:1059CA00000E046E000E056E480E066E850E076EFA
:1059DA0057EC0CF000C01BF001C01CF002C01DF017
:1059EA0003C01EF0100E02017F6F000E806F10C2FE
:1059FA0081F252EC15F0050E0B6E0F0E0C6EF10EC5
:105A0A000D6E0D2EFED70C2EFCD70B2EFAD7800E5C
:105A1A00006E800E02011119005C02E11051C708E4
